{
  "_format": "hh-sol-artifact-1",
  "contractName": "MyNFT",
  "sourceName": "contracts/mynft.sol",
  "abi": [
    {
      "inputs": [],
      "stateMutability": "nonpayable",
      "type": "constructor"
    },
    {
      "anonymous": false,
      "inputs": [
        {
          "indexed": true,
          "internalType": "address",
          "name": "owner",
          "type": "address"
        },
        {
          "indexed": true,
          "internalType": "address",
          "name": "approved",
          "type": "address"
        },
        {
          "indexed": true,
          "internalType": "uint256",
          "name": "tokenId",
          "type": "uint256"
        }
      ],
      "name": "Approval",
      "type": "event"
    },
    {
      "anonymous": false,
      "inputs": [
        {
          "indexed": true,
          "internalType": "address",
          "name": "owner",
          "type": "address"
        },
        {
          "indexed": true,
          "internalType": "address",
          "name": "operator",
          "type": "address"
        },
        {
          "indexed": false,
          "internalType": "bool",
          "name": "approved",
          "type": "bool"
        }
      ],
      "name": "ApprovalForAll",
      "type": "event"
    },
    {
      "anonymous": false,
      "inputs": [
        {
          "indexed": false,
          "internalType": "address",
          "name": "sender",
          "type": "address"
        },
        {
          "indexed": false,
          "internalType": "uint256",
          "name": "tokenId",
          "type": "uint256"
        }
      ],
      "name": "NewNFTMinted",
      "type": "event"
    },
    {
      "anonymous": false,
      "inputs": [
        {
          "indexed": true,
          "internalType": "address",
          "name": "from",
          "type": "address"
        },
        {
          "indexed": true,
          "internalType": "address",
          "name": "to",
          "type": "address"
        },
        {
          "indexed": true,
          "internalType": "uint256",
          "name": "tokenId",
          "type": "uint256"
        }
      ],
      "name": "Transfer",
      "type": "event"
    },
    {
      "inputs": [
        {
          "internalType": "address",
          "name": "to",
          "type": "address"
        },
        {
          "internalType": "uint256",
          "name": "tokenId",
          "type": "uint256"
        }
      ],
      "name": "approve",
      "outputs": [],
      "stateMutability": "nonpayable",
      "type": "function"
    },
    {
      "inputs": [
        {
          "internalType": "address",
          "name": "owner",
          "type": "address"
        }
      ],
      "name": "balanceOf",
      "outputs": [
        {
          "internalType": "uint256",
          "name": "",
          "type": "uint256"
        }
      ],
      "stateMutability": "view",
      "type": "function"
    },
    {
      "inputs": [
        {
          "internalType": "uint256",
          "name": "tokenId",
          "type": "uint256"
        }
      ],
      "name": "getApproved",
      "outputs": [
        {
          "internalType": "address",
          "name": "",
          "type": "address"
        }
      ],
      "stateMutability": "view",
      "type": "function"
    },
    {
      "inputs": [
        {
          "internalType": "address",
          "name": "owner",
          "type": "address"
        },
        {
          "internalType": "address",
          "name": "operator",
          "type": "address"
        }
      ],
      "name": "isApprovedForAll",
      "outputs": [
        {
          "internalType": "bool",
          "name": "",
          "type": "bool"
        }
      ],
      "stateMutability": "view",
      "type": "function"
    },
    {
      "inputs": [],
      "name": "mintNFT",
      "outputs": [],
      "stateMutability": "nonpayable",
      "type": "function"
    },
    {
      "inputs": [],
      "name": "name",
      "outputs": [
        {
          "internalType": "string",
          "name": "",
          "type": "string"
        }
      ],
      "stateMutability": "view",
      "type": "function"
    },
    {
      "inputs": [
        {
          "internalType": "uint256",
          "name": "tokenId",
          "type": "uint256"
        }
      ],
      "name": "ownerOf",
      "outputs": [
        {
          "internalType": "address",
          "name": "",
          "type": "address"
        }
      ],
      "stateMutability": "view",
      "type": "function"
    },
    {
      "inputs": [
        {
          "internalType": "uint256",
          "name": "tokenId",
          "type": "uint256"
        }
      ],
      "name": "pickRandomColor",
      "outputs": [
        {
          "internalType": "string",
          "name": "",
          "type": "string"
        }
      ],
      "stateMutability": "view",
      "type": "function"
    },
    {
      "inputs": [
        {
          "internalType": "uint256",
          "name": "tokenId",
          "type": "uint256"
        }
      ],
      "name": "pickRandomFirstWord",
      "outputs": [
        {
          "internalType": "string",
          "name": "",
          "type": "string"
        }
      ],
      "stateMutability": "view",
      "type": "function"
    },
    {
      "inputs": [
        {
          "internalType": "uint256",
          "name": "tokenId",
          "type": "uint256"
        }
      ],
      "name": "pickRandomSecondWord",
      "outputs": [
        {
          "internalType": "string",
          "name": "",
          "type": "string"
        }
      ],
      "stateMutability": "view",
      "type": "function"
    },
    {
      "inputs": [
        {
          "internalType": "uint256",
          "name": "tokenId",
          "type": "uint256"
        }
      ],
      "name": "pickRandomThirdWord",
      "outputs": [
        {
          "internalType": "string",
          "name": "",
          "type": "string"
        }
      ],
      "stateMutability": "view",
      "type": "function"
    },
    {
      "inputs": [
        {
          "internalType": "address",
          "name": "from",
          "type": "address"
        },
        {
          "internalType": "address",
          "name": "to",
          "type": "address"
        },
        {
          "internalType": "uint256",
          "name": "tokenId",
          "type": "uint256"
        }
      ],
      "name": "safeTransferFrom",
      "outputs": [],
      "stateMutability": "nonpayable",
      "type": "function"
    },
    {
      "inputs": [
        {
          "internalType": "address",
          "name": "from",
          "type": "address"
        },
        {
          "internalType": "address",
          "name": "to",
          "type": "address"
        },
        {
          "internalType": "uint256",
          "name": "tokenId",
          "type": "uint256"
        },
        {
          "internalType": "bytes",
          "name": "_data",
          "type": "bytes"
        }
      ],
      "name": "safeTransferFrom",
      "outputs": [],
      "stateMutability": "nonpayable",
      "type": "function"
    },
    {
      "inputs": [
        {
          "internalType": "address",
          "name": "operator",
          "type": "address"
        },
        {
          "internalType": "bool",
          "name": "approved",
          "type": "bool"
        }
      ],
      "name": "setApprovalForAll",
      "outputs": [],
      "stateMutability": "nonpayable",
      "type": "function"
    },
    {
      "inputs": [
        {
          "internalType": "bytes4",
          "name": "interfaceId",
          "type": "bytes4"
        }
      ],
      "name": "supportsInterface",
      "outputs": [
        {
          "internalType": "bool",
          "name": "",
          "type": "bool"
        }
      ],
      "stateMutability": "view",
      "type": "function"
    },
    {
      "inputs": [],
      "name": "symbol",
      "outputs": [
        {
          "internalType": "string",
          "name": "",
          "type": "string"
        }
      ],
      "stateMutability": "view",
      "type": "function"
    },
    {
      "inputs": [
        {
          "internalType": "uint256",
          "name": "tokenId",
          "type": "uint256"
        }
      ],
      "name": "tokenURI",
      "outputs": [
        {
          "internalType": "string",
          "name": "",
          "type": "string"
        }
      ],
      "stateMutability": "view",
      "type": "function"
    },
    {
      "inputs": [
        {
          "internalType": "address",
          "name": "from",
          "type": "address"
        },
        {
          "internalType": "address",
          "name": "to",
          "type": "address"
        },
        {
          "internalType": "uint256",
          "name": "tokenId",
          "type": "uint256"
        }
      ],
      "name": "transferFrom",
      "outputs": [],
      "stateMutability": "nonpayable",
      "type": "function"
    }
  ],
  "bytecode": "0x608060405260405180610100016040528060d3815260200162004aeb60d39139600890805190602001906200003692919062000b88565b5060405180608001604052806056815260200162004bee60569139600990805190602001906200006892919062000b88565b506040518061022001604052806040518060400160405280600881526020017f4e6578745765656b00000000000000000000000000000000000000000000000081525081526020016040518060400160405280600881526020017f546f6d6f72726f7700000000000000000000000000000000000000000000000081525081526020016040518060400160405280600e81526020017f324d6f6e74687346726f6d4e6f7700000000000000000000000000000000000081525081526020016040518060400160405280600981526020017f4e6578744d6f6e7468000000000000000000000000000000000000000000000081525081526020016040518060400160405280600d81526020017f32486f75727346726f6d4e6f770000000000000000000000000000000000000081525081526020016040518060400160405280600d81526020017f5468654e65787434354d696e730000000000000000000000000000000000000081525081526020016040518060400160405280600b81526020017f5468654e6578745965617200000000000000000000000000000000000000000081525081526020016040518060400160405280600581526020017f546f64617900000000000000000000000000000000000000000000000000000081525081526020016040518060400160405280600881526020017f546869735965617200000000000000000000000000000000000000000000000081525081526020016040518060400160405280600881526020017f546869735765656b00000000000000000000000000000000000000000000000081525081526020016040518060400160405280600a81526020017f5468697353756e6461790000000000000000000000000000000000000000000081525081526020016040518060400160405280600a81526020017f546869734d6f6e6461790000000000000000000000000000000000000000000081525081526020016040518060400160405280600b81526020017f546869735475657364617900000000000000000000000000000000000000000081525081526020016040518060400160405280600d81526020017f546869735765646e65736461790000000000000000000000000000000000000081525081526020016040518060400160405280600c81526020017f546869735468757273646179000000000000000000000000000000000000000081525081526020016040518060400160405280600a81526020017f546869734672696461790000000000000000000000000000000000000000000081525081526020016040518060400160405280600c81526020017f5468697353617475726461790000000000000000000000000000000000000000815250815250600a9060116200047092919062000c19565b5060405180602001604052806040518060400160405280600681526020017f57696c6c42650000000000000000000000000000000000000000000000000000815250815250600b906001620004c792919062000c80565b50604051806101a001604052806040518060400160405280600a81526020017f496e6372656469626c650000000000000000000000000000000000000000000081525081526020016040518060400160405280600681526020017f4a6f796f7573000000000000000000000000000000000000000000000000000081525081526020016040518060400160405280600781526020017f416d617a696e670000000000000000000000000000000000000000000000000081525081526020016040518060400160405280600581526020017f526f75676800000000000000000000000000000000000000000000000000000081525081526020016040518060400160405280600c81526020017f46756c6c4f6647726f777468000000000000000000000000000000000000000081525081526020016040518060400160405280600b81526020017f4672757374726174696e6700000000000000000000000000000000000000000081525081526020016040518060400160405280600781526020017f417765736f6d650000000000000000000000000000000000000000000000000081525081526020016040518060400160405280600981526020017f456e6a6f7961626c65000000000000000000000000000000000000000000000081525081526020016040518060400160405280600e81526020017f496e746572657374696e672e2e2e00000000000000000000000000000000000081525081526020016040518060400160405280600381526020017f426164000000000000000000000000000000000000000000000000000000000081525081526020016040518060400160405280600e81526020017f5375706572466f7274756e61746500000000000000000000000000000000000081525081526020016040518060400160405280600a81526020017f4d7973746572696f75730000000000000000000000000000000000000000000081525081526020016040518060400160405280600a81526020017f496e7472696775696e6700000000000000000000000000000000000000000000815250815250600c90600d620007e392919062000ce7565b506040518061010001604052806040518060400160405280600681526020017f707572706c65000000000000000000000000000000000000000000000000000081525081526020016040518060400160405280600581526020017f677265656e00000000000000000000000000000000000000000000000000000081525081526020016040518060400160405280600581526020017f626c61636b00000000000000000000000000000000000000000000000000000081525081526020016040518060400160405280600681526020017f6f72616e6765000000000000000000000000000000000000000000000000000081525081526020016040518060400160405280600481526020017f626c75650000000000000000000000000000000000000000000000000000000081525081526020016040518060400160405280600381526020017f726564000000000000000000000000000000000000000000000000000000000081525081526020016040518060400160405280600581526020017f62726f776e00000000000000000000000000000000000000000000000000000081525081526020016040518060400160405280600481526020017f6772657900000000000000000000000000000000000000000000000000000000815250815250600d906008620009d892919062000d4e565b50348015620009e657600080fd5b506040518060400160405280601181526020017f596f7572205472756520466f7274756e650000000000000000000000000000008152506040518060400160405280600581526020017f5452555448000000000000000000000000000000000000000000000000000000815250816000908051906020019062000a6b92919062000b88565b50806001908051906020019062000a8492919062000b88565b50505062000ab660405180606001604052806030815260200162004bbe6030913962000abc60201b620011f11760201c565b62000f6f565b62000b5c8160405160240162000ad3919062000e83565b6040516020818303038152906040527f41304fac000000000000000000000000000000000000000000000000000000007bffffffffffffffffffffffffffffffffffffffffffffffffffffffff19166020820180517bffffffffffffffffffffffffffffffffffffffffffffffffffffffff838183161783525050505062000b5f60201b60201c565b50565b60008151905060006a636f6e736f6c652e6c6f679050602083016000808483855afa5050505050565b82805462000b969062000ef9565b90600052602060002090601f01602090048101928262000bba576000855562000c06565b82601f1062000bd557805160ff191683800117855562000c06565b8280016001018555821562000c06579182015b8281111562000c0557825182559160200191906001019062000be8565b5b50905062000c15919062000db5565b5090565b82805482825590600052602060002090810192821562000c6d579160200282015b8281111562000c6c57825182908051906020019062000c5b92919062000b88565b509160200191906001019062000c3a565b5b50905062000c7c919062000dd4565b5090565b82805482825590600052602060002090810192821562000cd4579160200282015b8281111562000cd357825182908051906020019062000cc292919062000b88565b509160200191906001019062000ca1565b5b50905062000ce3919062000dd4565b5090565b82805482825590600052602060002090810192821562000d3b579160200282015b8281111562000d3a57825182908051906020019062000d2992919062000b88565b509160200191906001019062000d08565b5b50905062000d4a919062000dd4565b5090565b82805482825590600052602060002090810192821562000da2579160200282015b8281111562000da157825182908051906020019062000d9092919062000b88565b509160200191906001019062000d6f565b5b50905062000db1919062000dd4565b5090565b5b8082111562000dd057600081600090555060010162000db6565b5090565b5b8082111562000df8576000818162000dee919062000dfc565b5060010162000dd5565b5090565b50805462000e0a9062000ef9565b6000825580601f1062000e1e575062000e3f565b601f01602090049060005260206000209081019062000e3e919062000db5565b5b50565b600062000e4f8262000ea7565b62000e5b818562000eb2565b935062000e6d81856020860162000ec3565b62000e788162000f5e565b840191505092915050565b6000602082019050818103600083015262000e9f818462000e42565b905092915050565b600081519050919050565b600082825260208201905092915050565b60005b8381101562000ee357808201518184015260208101905062000ec6565b8381111562000ef3576000848401525b50505050565b6000600282049050600182168062000f1257607f821691505b6020821081141562000f295762000f2862000f2f565b5b50919050565b7f4e487b7100000000000000000000000000000000000000000000000000000000600052602260045260246000fd5b6000601f19601f8301169050919050565b613b6c8062000f7f6000396000f3fe608060405234801561001057600080fd5b50600436106101165760003560e01c80636352211e116100a2578063b187301f11610071578063b187301f146102f1578063b88d4fde14610321578063c575757a1461033d578063c87b56dd1461036d578063e985e9c51461039d57610116565b80636352211e1461025757806370a082311461028757806395d89b41146102b7578063a22cb465146102d557610116565b806314f710fe116100e957806314f710fe146101b557806323b872dd146101bf5780632de38d68146101db57806342842e0e1461020b578063514dc8c61461022757610116565b806301ffc9a71461011b57806306fdde031461014b578063081812fc14610169578063095ea7b314610199575b600080fd5b6101356004803603810190610130919061261d565b6103cd565b6040516101429190612d5d565b60405180910390f35b6101536104af565b6040516101609190612d78565b60405180910390f35b610183600480360381019061017e919061266f565b610541565b6040516101909190612cf6565b60405180910390f35b6101b360048036038101906101ae91906125e1565b6105c6565b005b6101bd6106de565b005b6101d960048036038101906101d491906124db565b61089f565b005b6101f560048036038101906101f0919061266f565b6108ff565b6040516102029190612d78565b60405180910390f35b610225600480360381019061022091906124db565b610a1d565b005b610241600480360381019061023c919061266f565b610a3d565b60405161024e9190612d78565b60405180910390f35b610271600480360381019061026c919061266f565b610b5b565b60405161027e9190612cf6565b60405180910390f35b6102a1600480360381019061029c9190612476565b610c0d565b6040516102ae9190612fd8565b60405180910390f35b6102bf610cc5565b6040516102cc9190612d78565b60405180910390f35b6102ef60048036038101906102ea91906125a5565b610d57565b005b61030b6004803603810190610306919061266f565b610d6d565b6040516103189190612d78565b60405180910390f35b61033b6004803603810190610336919061252a565b610e8b565b005b6103576004803603810190610352919061266f565b610eed565b6040516103649190612d78565b60405180910390f35b6103876004803603810190610382919061266f565b61100b565b6040516103949190612d78565b60405180910390f35b6103b760048036038101906103b2919061249f565b61115d565b6040516103c49190612d5d565b60405180910390f35b60007f80ac58cd000000000000000000000000000000000000000000000000000000007bffffffffffffffffffffffffffffffffffffffffffffffffffffffff1916827bffffffffffffffffffffffffffffffffffffffffffffffffffffffff1916148061049857507f5b5e139f000000000000000000000000000000000000000000000000000000007bffffffffffffffffffffffffffffffffffffffffffffffffffffffff1916827bffffffffffffffffffffffffffffffffffffffffffffffffffffffff1916145b806104a857506104a78261128a565b5b9050919050565b6060600080546104be9061326c565b80601f01602080910402602001604051908101604052809291908181526020018280546104ea9061326c565b80156105375780601f1061050c57610100808354040283529160200191610537565b820191906000526020600020905b81548152906001019060200180831161051a57829003601f168201915b5050505050905090565b600061054c826112f4565b61058b576040517f08c379a000000000000000000000000000000000000000000000000000000000815260040161058290612f58565b60405180910390fd5b6004600083815260200190815260200160002060009054906101000a900473ffffffffffffffffffffffffffffffffffffffff169050919050565b60006105d182610b5b565b90508073ffffffffffffffffffffffffffffffffffffffff168373ffffffffffffffffffffffffffffffffffffffff161415610642576040517f08c379a000000000000000000000000000000000000000000000000000000000815260040161063990612f98565b60405180910390fd5b8073ffffffffffffffffffffffffffffffffffffffff16610661611360565b73ffffffffffffffffffffffffffffffffffffffff161480610690575061068f8161068a611360565b61115d565b5b6106cf576040517f08c379a00000000000000000000000000000000000000000000000000000000081526004016106c690612e98565b60405180910390fd5b6106d98383611368565b505050565b60006106ea6007611421565b905060006106f7826108ff565b9050600061070483610d6d565b9050600061071184610eed565b9050600083838360405160200161072a93929190612b8d565b6040516020818303038152906040529050600061074686610a3d565b905060006008826009856040516020016107639493929190612bbe565b604051602081830303815290604052905060006107a8846107838461142f565b604051602001610794929190612c29565b60405160208183030381529060405261142f565b90506000816040516020016107bd9190612c6e565b604051602081830303815290604052905061080c6040518060400160405280601581526020017f0a2d2d2d2d2d2d2d2d2d2d2d2d2d2d2d2d2d2d2d2d00000000000000000000008152506111f1565b610815816111f1565b6108536040518060400160405280601581526020017f2d2d2d2d2d2d2d2d2d2d2d2d2d2d2d2d2d2d2d2d0a00000000000000000000008152506111f1565b61085d338a6115ed565b610867898261160b565b610871600761167f565b610894604051806060016040528060238152602001613ad4602391398a33611695565b505050505050505050565b6108b06108aa611360565b82611734565b6108ef576040517f08c379a00000000000000000000000000000000000000000000000000000000081526004016108e690612fb8565b60405180910390fd5b6108fa838383611812565b505050565b6060600061093361090f84611a79565b60405160200161091f9190612cb2565b604051602081830303815290604052611c26565b9050600a80549050816109469190613318565b9050600a8181548110610982577f4e487b7100000000000000000000000000000000000000000000000000000000600052603260045260246000fd5b9060005260206000200180546109979061326c565b80601f01602080910402602001604051908101604052809291908181526020018280546109c39061326c565b8015610a105780601f106109e557610100808354040283529160200191610a10565b820191906000526020600020905b8154815290600101906020018083116109f357829003601f168201915b5050505050915050919050565b610a3883838360405180602001604052806000815250610e8b565b505050565b60606000610a71610a4d84611a79565b604051602001610a5d9190612cd4565b604051602081830303815290604052611c26565b9050600d8054905081610a849190613318565b9050600d8181548110610ac0577f4e487b7100000000000000000000000000000000000000000000000000000000600052603260045260246000fd5b906000526020600020018054610ad59061326c565b80601f0160208091040260200160405190810160405280929190818152602001828054610b019061326c565b8015610b4e5780601f10610b2357610100808354040283529160200191610b4e565b820191906000526020600020905b815481529060010190602001808311610b3157829003601f168201915b5050505050915050919050565b6000806002600084815260200190815260200160002060009054906101000a900473ffffffffffffffffffffffffffffffffffffffff169050600073ffffffffffffffffffffffffffffffffffffffff168173ffffffffffffffffffffffffffffffffffffffff161415610c04576040517f08c379a0000000000000000000000000000000000000000000000000000000008152600401610bfb90612ed8565b60405180910390fd5b80915050919050565b60008073ffffffffffffffffffffffffffffffffffffffff168273ffffffffffffffffffffffffffffffffffffffff161415610c7e576040517f08c379a0000000000000000000000000000000000000000000000000000000008152600401610c7590612eb8565b60405180910390fd5b600360008373ffffffffffffffffffffffffffffffffffffffff1673ffffffffffffffffffffffffffffffffffffffff168152602001908152602001600020549050919050565b606060018054610cd49061326c565b80601f0160208091040260200160405190810160405280929190818152602001828054610d009061326c565b8015610d4d5780601f10610d2257610100808354040283529160200191610d4d565b820191906000526020600020905b815481529060010190602001808311610d3057829003601f168201915b5050505050905090565b610d69610d62611360565b8383611c59565b5050565b60606000610da1610d7d84611a79565b604051602001610d8d9190612c07565b604051602081830303815290604052611c26565b9050600b8054905081610db49190613318565b9050600b8181548110610df0577f4e487b7100000000000000000000000000000000000000000000000000000000600052603260045260246000fd5b906000526020600020018054610e059061326c565b80601f0160208091040260200160405190810160405280929190818152602001828054610e319061326c565b8015610e7e5780601f10610e5357610100808354040283529160200191610e7e565b820191906000526020600020905b815481529060010190602001808311610e6157829003601f168201915b5050505050915050919050565b610e9c610e96611360565b83611734565b610edb576040517f08c379a0000000000000000000000000000000000000000000000000000000008152600401610ed290612fb8565b60405180910390fd5b610ee784848484611dc6565b50505050565b60606000610f21610efd84611a79565b604051602001610f0d9190612c90565b604051602081830303815290604052611c26565b9050600c8054905081610f349190613318565b9050600c8181548110610f70577f4e487b7100000000000000000000000000000000000000000000000000000000600052603260045260246000fd5b906000526020600020018054610f859061326c565b80601f0160208091040260200160405190810160405280929190818152602001828054610fb19061326c565b8015610ffe5780601f10610fd357610100808354040283529160200191610ffe565b820191906000526020600020905b815481529060010190602001808311610fe157829003601f168201915b5050505050915050919050565b6060611016826112f4565b611055576040517f08c379a000000000000000000000000000000000000000000000000000000000815260040161104c90612f38565b60405180910390fd5b60006006600084815260200190815260200160002080546110759061326c565b80601f01602080910402602001604051908101604052809291908181526020018280546110a19061326c565b80156110ee5780601f106110c3576101008083540402835291602001916110ee565b820191906000526020600020905b8154815290600101906020018083116110d157829003601f168201915b5050505050905060006110ff611e22565b9050600081511415611115578192505050611158565b60008251111561114a578082604051602001611132929190612b69565b60405160208183030381529060405292505050611158565b61115384611e39565b925050505b919050565b6000600560008473ffffffffffffffffffffffffffffffffffffffff1673ffffffffffffffffffffffffffffffffffffffff16815260200190815260200160002060008373ffffffffffffffffffffffffffffffffffffffff1673ffffffffffffffffffffffffffffffffffffffff16815260200190815260200160002060009054906101000a900460ff16905092915050565b611287816040516024016112059190612d78565b6040516020818303038152906040527f41304fac000000000000000000000000000000000000000000000000000000007bffffffffffffffffffffffffffffffffffffffffffffffffffffffff19166020820180517bffffffffffffffffffffffffffffffffffffffffffffffffffffffff8381831617835250505050611ee0565b50565b60007f01ffc9a7000000000000000000000000000000000000000000000000000000007bffffffffffffffffffffffffffffffffffffffffffffffffffffffff1916827bffffffffffffffffffffffffffffffffffffffffffffffffffffffff1916149050919050565b60008073ffffffffffffffffffffffffffffffffffffffff166002600084815260200190815260200160002060009054906101000a900473ffffffffffffffffffffffffffffffffffffffff1673ffffffffffffffffffffffffffffffffffffffff1614159050919050565b600033905090565b816004600083815260200190815260200160002060006101000a81548173ffffffffffffffffffffffffffffffffffffffff021916908373ffffffffffffffffffffffffffffffffffffffff160217905550808273ffffffffffffffffffffffffffffffffffffffff166113db83610b5b565b73ffffffffffffffffffffffffffffffffffffffff167f8c5be1e5ebec7d5bd14f71427d1e84f3dd0314c0f7b2291e5b200ac8c7c3b92560405160405180910390a45050565b600081600001549050919050565b6060600082519050600081141561145857604051806020016040528060008152509150506115e8565b6000600360028361146991906130a1565b61147391906130f7565b600461147f9190613128565b9050600060208261149091906130a1565b67ffffffffffffffff8111156114cf577f4e487b7100000000000000000000000000000000000000000000000000000000600052604160045260246000fd5b6040519080825280601f01601f1916602001820160405280156115015781602001600182028036833780820191505090505b5090506000604051806060016040528060408152602001613af7604091399050600181016020830160005b868110156115a55760038101905062ffffff818a015116603f8160121c168401518060081b905060ff603f83600c1c1686015116810190508060081b905060ff603f8360061c1686015116810190508060081b905060ff603f831686015116810190508060e01b9050808452600484019350505061152c565b5060038606600181146115bf57600281146115cf576115da565b613d3d60f01b60028303526115da565b603d60f81b60018303525b508484525050819450505050505b919050565b611607828260405180602001604052806000815250611f09565b5050565b611614826112f4565b611653576040517f08c379a000000000000000000000000000000000000000000000000000000000815260040161164a90612ef8565b60405180910390fd5b8060066000848152602001908152602001600020908051906020019061167a929190612302565b505050565b6001816000016000828254019250508190555050565b61172f8383836040516024016116ad93929190612d9a565b6040516020818303038152906040527fe3849f79000000000000000000000000000000000000000000000000000000007bffffffffffffffffffffffffffffffffffffffffffffffffffffffff19166020820180517bffffffffffffffffffffffffffffffffffffffffffffffffffffffff8381831617835250505050611ee0565b505050565b600061173f826112f4565b61177e576040517f08c379a000000000000000000000000000000000000000000000000000000000815260040161177590612e78565b60405180910390fd5b600061178983610b5b565b90508073ffffffffffffffffffffffffffffffffffffffff168473ffffffffffffffffffffffffffffffffffffffff1614806117cb57506117ca818561115d565b5b8061180957508373ffffffffffffffffffffffffffffffffffffffff166117f184610541565b73ffffffffffffffffffffffffffffffffffffffff16145b91505092915050565b8273ffffffffffffffffffffffffffffffffffffffff1661183282610b5b565b73ffffffffffffffffffffffffffffffffffffffff1614611888576040517f08c379a000000000000000000000000000000000000000000000000000000000815260040161187f90612df8565b60405180910390fd5b600073ffffffffffffffffffffffffffffffffffffffff168273ffffffffffffffffffffffffffffffffffffffff1614156118f8576040517f08c379a00000000000000000000000000000000000000000000000000000000081526004016118ef90612e38565b60405180910390fd5b611903838383611f64565b61190e600082611368565b6001600360008573ffffffffffffffffffffffffffffffffffffffff1673ffffffffffffffffffffffffffffffffffffffff168152602001908152602001600020600082825461195e9190613182565b925050819055506001600360008473ffffffffffffffffffffffffffffffffffffffff1673ffffffffffffffffffffffffffffffffffffffff16815260200190815260200160002060008282546119b591906130a1565b92505081905550816002600083815260200190815260200160002060006101000a81548173ffffffffffffffffffffffffffffffffffffffff021916908373ffffffffffffffffffffffffffffffffffffffff160217905550808273ffffffffffffffffffffffffffffffffffffffff168473ffffffffffffffffffffffffffffffffffffffff167fddf252ad1be2c89b69c2b068fc378daa952ba7f163c4a11628f55a4df523b3ef60405160405180910390a4611a74838383611f69565b505050565b60606000821415611ac1576040518060400160405280600181526020017f30000000000000000000000000000000000000000000000000000000000000008152509050611c21565b600082905060005b60008214611af3578080611adc906132cf565b915050600a82611aec91906130f7565b9150611ac9565b60008167ffffffffffffffff811115611b35577f4e487b7100000000000000000000000000000000000000000000000000000000600052604160045260246000fd5b6040519080825280601f01601f191660200182016040528015611b675781602001600182028036833780820191505090505b5090505b60008514611c1a57600182611b809190613182565b9150600a85611b8f9190613318565b6030611b9b91906130a1565b60f81b818381518110611bd7577f4e487b7100000000000000000000000000000000000000000000000000000000600052603260045260246000fd5b60200101907effffffffffffffffffffffffffffffffffffffffffffffffffffffffffffff1916908160001a905350600a85611c1391906130f7565b9450611b6b565b8093505050505b919050565b600081604051602001611c399190612b52565b6040516020818303038152906040528051906020012060001c9050919050565b8173ffffffffffffffffffffffffffffffffffffffff168373ffffffffffffffffffffffffffffffffffffffff161415611cc8576040517f08c379a0000000000000000000000000000000000000000000000000000000008152600401611cbf90612e58565b60405180910390fd5b80600560008573ffffffffffffffffffffffffffffffffffffffff1673ffffffffffffffffffffffffffffffffffffffff16815260200190815260200160002060008473ffffffffffffffffffffffffffffffffffffffff1673ffffffffffffffffffffffffffffffffffffffff16815260200190815260200160002060006101000a81548160ff0219169083151502179055508173ffffffffffffffffffffffffffffffffffffffff168373ffffffffffffffffffffffffffffffffffffffff167f17307eab39ab6107e8899845ad3d59bd9653f200f220920489ca2b5937696c3183604051611db99190612d5d565b60405180910390a3505050565b611dd1848484611812565b611ddd84848484611f6e565b611e1c576040517f08c379a0000000000000000000000000000000000000000000000000000000008152600401611e1390612dd8565b60405180910390fd5b50505050565b606060405180602001604052806000815250905090565b6060611e44826112f4565b611e83576040517f08c379a0000000000000000000000000000000000000000000000000000000008152600401611e7a90612f78565b60405180910390fd5b6000611e8d611e22565b90506000815111611ead5760405180602001604052806000815250611ed8565b80611eb784611a79565b604051602001611ec8929190612b69565b6040516020818303038152906040525b915050919050565b60008151905060006a636f6e736f6c652e6c6f679050602083016000808483855afa5050505050565b611f138383612105565b611f206000848484611f6e565b611f5f576040517f08c379a0000000000000000000000000000000000000000000000000000000008152600401611f5690612dd8565b60405180910390fd5b505050565b505050565b505050565b6000611f8f8473ffffffffffffffffffffffffffffffffffffffff166122df565b156120f8578373ffffffffffffffffffffffffffffffffffffffff1663150b7a02611fb8611360565b8786866040518563ffffffff1660e01b8152600401611fda9493929190612d11565b602060405180830381600087803b158015611ff457600080fd5b505af192505050801561202557506040513d601f19601f820116820180604052508101906120229190612646565b60015b6120a8573d8060008114612055576040519150601f19603f3d011682016040523d82523d6000602084013e61205a565b606091505b506000815114156120a0576040517f08c379a000000000000000000000000000000000000000000000000000000000815260040161209790612dd8565b60405180910390fd5b805181602001fd5b63150b7a0260e01b7bffffffffffffffffffffffffffffffffffffffffffffffffffffffff1916817bffffffffffffffffffffffffffffffffffffffffffffffffffffffff1916149150506120fd565b600190505b949350505050565b600073ffffffffffffffffffffffffffffffffffffffff168273ffffffffffffffffffffffffffffffffffffffff161415612175576040517f08c379a000000000000000000000000000000000000000000000000000000000815260040161216c90612f18565b60405180910390fd5b61217e816112f4565b156121be576040517f08c379a00000000000000000000000000000000000000000000000000000000081526004016121b590612e18565b60405180910390fd5b6121ca60008383611f64565b6001600360008473ffffffffffffffffffffffffffffffffffffffff1673ffffffffffffffffffffffffffffffffffffffff168152602001908152602001600020600082825461221a91906130a1565b92505081905550816002600083815260200190815260200160002060006101000a81548173ffffffffffffffffffffffffffffffffffffffff021916908373ffffffffffffffffffffffffffffffffffffffff160217905550808273ffffffffffffffffffffffffffffffffffffffff16600073ffffffffffffffffffffffffffffffffffffffff167fddf252ad1be2c89b69c2b068fc378daa952ba7f163c4a11628f55a4df523b3ef60405160405180910390a46122db60008383611f69565b5050565b6000808273ffffffffffffffffffffffffffffffffffffffff163b119050919050565b82805461230e9061326c565b90600052602060002090601f0160209004810192826123305760008555612377565b82601f1061234957805160ff1916838001178555612377565b82800160010185558215612377579182015b8281111561237657825182559160200191906001019061235b565b5b5090506123849190612388565b5090565b5b808211156123a1576000816000905550600101612389565b5090565b60006123b86123b384613018565b612ff3565b9050828152602081018484840111156123d057600080fd5b6123db84828561322a565b509392505050565b6000813590506123f281613a77565b92915050565b60008135905061240781613a8e565b92915050565b60008135905061241c81613aa5565b92915050565b60008151905061243181613aa5565b92915050565b600082601f83011261244857600080fd5b81356124588482602086016123a5565b91505092915050565b60008135905061247081613abc565b92915050565b60006020828403121561248857600080fd5b6000612496848285016123e3565b91505092915050565b600080604083850312156124b257600080fd5b60006124c0858286016123e3565b92505060206124d1858286016123e3565b9150509250929050565b6000806000606084860312156124f057600080fd5b60006124fe868287016123e3565b935050602061250f868287016123e3565b925050604061252086828701612461565b9150509250925092565b6000806000806080858703121561254057600080fd5b600061254e878288016123e3565b945050602061255f878288016123e3565b935050604061257087828801612461565b925050606085013567ffffffffffffffff81111561258d57600080fd5b61259987828801612437565b91505092959194509250565b600080604083850312156125b857600080fd5b60006125c6858286016123e3565b92505060206125d7858286016123f8565b9150509250929050565b600080604083850312156125f457600080fd5b6000612602858286016123e3565b925050602061261385828601612461565b9150509250929050565b60006020828403121561262f57600080fd5b600061263d8482850161240d565b91505092915050565b60006020828403121561265857600080fd5b600061266684828501612422565b91505092915050565b60006020828403121561268157600080fd5b600061268f84828501612461565b91505092915050565b6126a1816131b6565b82525050565b6126b0816131c8565b82525050565b60006126c18261305e565b6126cb8185613074565b93506126db818560208601613239565b6126e481613405565b840191505092915050565b60006126fa82613069565b6127048185613085565b9350612714818560208601613239565b61271d81613405565b840191505092915050565b600061273382613069565b61273d8185613096565b935061274d818560208601613239565b80840191505092915050565b600081546127668161326c565b6127708186613096565b9450600182166000811461278b576001811461279c576127cf565b60ff198316865281860193506127cf565b6127a585613049565b60005b838110156127c7578154818901526001820191506020810190506127a8565b838801955050505b50505092915050565b60006127e5603283613085565b91506127f082613416565b604082019050919050565b6000612808602583613085565b915061281382613465565b604082019050919050565b600061282b601c83613085565b9150612836826134b4565b602082019050919050565b600061284e602483613085565b9150612859826134dd565b604082019050919050565b6000612871601983613085565b915061287c8261352c565b602082019050919050565b6000612894601283613096565b915061289f82613555565b601282019050919050565b60006128b7602c83613085565b91506128c28261357e565b604082019050919050565b60006128da600d83613096565b91506128e5826135cd565b600d82019050919050565b60006128fd603883613085565b9150612908826135f6565b604082019050919050565b6000612920602a83613085565b915061292b82613645565b604082019050919050565b6000612943602983613085565b915061294e82613694565b604082019050919050565b6000612966602e83613085565b9150612971826136e3565b604082019050919050565b6000612989600283613096565b915061299482613732565b600282019050919050565b60006129ac602083613085565b91506129b78261375b565b602082019050919050565b60006129cf603183613085565b91506129da82613784565b604082019050919050565b60006129f2602c83613085565b91506129fd826137d3565b604082019050919050565b6000612a15602f83613085565b9150612a2082613822565b604082019050919050565b6000612a38606a83613096565b9150612a4382613871565b606a82019050919050565b6000612a5b600a83613096565b9150612a668261390c565b600a82019050919050565b6000612a7e602183613085565b9150612a8982613935565b604082019050919050565b6000612aa1601d83613096565b9150612aac82613984565b601d82019050919050565b6000612ac4601183613096565b9150612acf826139ad565b601182019050919050565b6000612ae7603183613085565b9150612af2826139d6565b604082019050919050565b6000612b0a601183613096565b9150612b1582613a25565b601182019050919050565b6000612b2d600c83613096565b9150612b3882613a4e565b600c82019050919050565b612b4c81613220565b82525050565b6000612b5e8284612728565b915081905092915050565b6000612b758285612728565b9150612b818284612728565b91508190509392505050565b6000612b998286612728565b9150612ba58285612728565b9150612bb18284612728565b9150819050949350505050565b6000612bca8287612759565b9150612bd68286612728565b9150612be28285612759565b9150612bee8284612728565b9150612bf9826128cd565b915081905095945050505050565b6000612c1282612887565b9150612c1e8284612728565b915081905092915050565b6000612c3482612a4e565b9150612c408285612728565b9150612c4b82612a2b565b9150612c578284612728565b9150612c628261297c565b91508190509392505050565b6000612c7982612a94565b9150612c858284612728565b915081905092915050565b6000612c9b82612ab7565b9150612ca78284612728565b915081905092915050565b6000612cbd82612afd565b9150612cc98284612728565b915081905092915050565b6000612cdf82612b20565b9150612ceb8284612728565b915081905092915050565b6000602082019050612d0b6000830184612698565b92915050565b6000608082019050612d266000830187612698565b612d336020830186612698565b612d406040830185612b43565b8181036060830152612d5281846126b6565b905095945050505050565b6000602082019050612d7260008301846126a7565b92915050565b60006020820190508181036000830152612d9281846126ef565b905092915050565b60006060820190508181036000830152612db481866126ef565b9050612dc36020830185612b43565b612dd06040830184612698565b949350505050565b60006020820190508181036000830152612df1816127d8565b9050919050565b60006020820190508181036000830152612e11816127fb565b9050919050565b60006020820190508181036000830152612e318161281e565b9050919050565b60006020820190508181036000830152612e5181612841565b9050919050565b60006020820190508181036000830152612e7181612864565b9050919050565b60006020820190508181036000830152612e91816128aa565b9050919050565b60006020820190508181036000830152612eb1816128f0565b9050919050565b60006020820190508181036000830152612ed181612913565b9050919050565b60006020820190508181036000830152612ef181612936565b9050919050565b60006020820190508181036000830152612f1181612959565b9050919050565b60006020820190508181036000830152612f318161299f565b9050919050565b60006020820190508181036000830152612f51816129c2565b9050919050565b60006020820190508181036000830152612f71816129e5565b9050919050565b60006020820190508181036000830152612f9181612a08565b9050919050565b60006020820190508181036000830152612fb181612a71565b9050919050565b60006020820190508181036000830152612fd181612ada565b9050919050565b6000602082019050612fed6000830184612b43565b92915050565b6000612ffd61300e565b9050613009828261329e565b919050565b6000604051905090565b600067ffffffffffffffff821115613033576130326133d6565b5b61303c82613405565b9050602081019050919050565b60008190508160005260206000209050919050565b600081519050919050565b600081519050919050565b600082825260208201905092915050565b600082825260208201905092915050565b600081905092915050565b60006130ac82613220565b91506130b783613220565b9250827fffffffffffffffffffffffffffffffffffffffffffffffffffffffffffffffff038211156130ec576130eb613349565b5b828201905092915050565b600061310282613220565b915061310d83613220565b92508261311d5761311c613378565b5b828204905092915050565b600061313382613220565b915061313e83613220565b9250817fffffffffffffffffffffffffffffffffffffffffffffffffffffffffffffffff048311821515161561317757613176613349565b5b828202905092915050565b600061318d82613220565b915061319883613220565b9250828210156131ab576131aa613349565b5b828203905092915050565b60006131c182613200565b9050919050565b60008115159050919050565b60007fffffffff0000000000000000000000000000000000000000000000000000000082169050919050565b600073ffffffffffffffffffffffffffffffffffffffff82169050919050565b6000819050919050565b82818337600083830152505050565b60005b8381101561325757808201518184015260208101905061323c565b83811115613266576000848401525b50505050565b6000600282049050600182168061328457607f821691505b60208210811415613298576132976133a7565b5b50919050565b6132a782613405565b810181811067ffffffffffffffff821117156132c6576132c56133d6565b5b80604052505050565b60006132da82613220565b91507fffffffffffffffffffffffffffffffffffffffffffffffffffffffffffffffff82141561330d5761330c613349565b5b600182019050919050565b600061332382613220565b915061332e83613220565b92508261333e5761333d613378565b5b828206905092915050565b7f4e487b7100000000000000000000000000000000000000000000000000000000600052601160045260246000fd5b7f4e487b7100000000000000000000000000000000000000000000000000000000600052601260045260246000fd5b7f4e487b7100000000000000000000000000000000000000000000000000000000600052602260045260246000fd5b7f4e487b7100000000000000000000000000000000000000000000000000000000600052604160045260246000fd5b6000601f19601f8301169050919050565b7f4552433732313a207472616e7366657220746f206e6f6e20455243373231526560008201527f63656976657220696d706c656d656e7465720000000000000000000000000000602082015250565b7f4552433732313a207472616e736665722066726f6d20696e636f72726563742060008201527f6f776e6572000000000000000000000000000000000000000000000000000000602082015250565b7f4552433732313a20746f6b656e20616c7265616479206d696e74656400000000600082015250565b7f4552433732313a207472616e7366657220746f20746865207a65726f2061646460008201527f7265737300000000000000000000000000000000000000000000000000000000602082015250565b7f4552433732313a20617070726f766520746f2063616c6c657200000000000000600082015250565b7f5345434f4e445f574f52445f43484f53454e0000000000000000000000000000600082015250565b7f4552433732313a206f70657261746f7220717565727920666f72206e6f6e657860008201527f697374656e7420746f6b656e0000000000000000000000000000000000000000602082015250565b7f3c2f746578743e3c2f7376673e00000000000000000000000000000000000000600082015250565b7f4552433732313a20617070726f76652063616c6c6572206973206e6f74206f7760008201527f6e6572206e6f7220617070726f76656420666f7220616c6c0000000000000000602082015250565b7f4552433732313a2062616c616e636520717565727920666f7220746865207a6560008201527f726f206164647265737300000000000000000000000000000000000000000000602082015250565b7f4552433732313a206f776e657220717565727920666f72206e6f6e657869737460008201527f656e7420746f6b656e0000000000000000000000000000000000000000000000602082015250565b7f45524337323155524953746f726167653a2055524920736574206f66206e6f6e60008201527f6578697374656e7420746f6b656e000000000000000000000000000000000000602082015250565b7f227d000000000000000000000000000000000000000000000000000000000000600082015250565b7f4552433732313a206d696e7420746f20746865207a65726f2061646472657373600082015250565b7f45524337323155524953746f726167653a2055524920717565727920666f722060008201527f6e6f6e6578697374656e7420746f6b656e000000000000000000000000000000602082015250565b7f4552433732313a20617070726f76656420717565727920666f72206e6f6e657860008201527f697374656e7420746f6b656e0000000000000000000000000000000000000000602082015250565b7f4552433732314d657461646174613a2055524920717565727920666f72206e6f60008201527f6e6578697374656e7420746f6b656e0000000000000000000000000000000000602082015250565b7f222c20226465736372697074696f6e223a20225468652074727574682c206f6e60008201527f6c79207468652074727574682c206e6f7468696e67206275742074686520747260208201527f757468222c2022696d616765223a2022646174613a696d6167652f7376672b7860408201527f6d6c3b6261736536342c00000000000000000000000000000000000000000000606082015250565b7f7b226e616d65223a202200000000000000000000000000000000000000000000600082015250565b7f4552433732313a20617070726f76616c20746f2063757272656e74206f776e6560008201527f7200000000000000000000000000000000000000000000000000000000000000602082015250565b7f646174613a6170706c69636174696f6e2f6a736f6e3b6261736536342c000000600082015250565b7f54484952445f574f52445f43484f53454e000000000000000000000000000000600082015250565b7f4552433732313a207472616e736665722063616c6c6572206973206e6f74206f60008201527f776e6572206e6f7220617070726f766564000000000000000000000000000000602082015250565b7f46495253545f574f52445f43484f53454e000000000000000000000000000000600082015250565b7f434f4c4f525f43484f53454e0000000000000000000000000000000000000000600082015250565b613a80816131b6565b8114613a8b57600080fd5b50565b613a97816131c8565b8114613aa257600080fd5b50565b613aae816131d4565b8114613ab957600080fd5b50565b613ac581613220565b8114613ad057600080fd5b5056fe4e465420772f20494420257320686173206265656e206d696e74656420746f3a2025734142434445464748494a4b4c4d4e4f505152535455565758595a6162636465666768696a6b6c6d6e6f707172737475767778797a303132333435363738392b2fa264697066735822122041f4bea2a892ae366c9b4e58e51e85ff1ab93cac09d32dcc09dc4f6ba918576164736f6c634300080100333c73766720786d6c6e733d27687474703a2f2f7777772e77332e6f72672f323030302f73766727207072657365727665417370656374526174696f3d27784d696e594d696e206d656574272076696577426f783d273020302033353020333530273e3c7374796c653e2e62617365207b2066696c6c3a2077686974653b20666f6e742d66616d696c793a2073657269663b20666f6e742d73697a653a20323470783b207d3c2f7374796c653e3c726563742077696474683d273130302527206865696768743d2731303025272066696c6c3d275468652074727574682c206f6e6c79207468652074727574682c206e6f7468696e672062757420746865207472757468272f3e3c7465787420783d273530252720793d273530252720636c6173733d27626173652720646f6d696e616e742d626173656c696e653d276d6964646c652720746578742d616e63686f723d276d6964646c65273e",
  "linkReferences": {},
  "deployedLinkReferences": {}
}