{
    "_format": "hh-sol-artifact-1",
    "contractName": "MyNFT",
    "sourceName": "contracts/mynft.sol",
    "abi": [
        {
            "inputs": [],
            "stateMutability": "nonpayable",
            "type": "constructor"
        },
        {
            "anonymous": false,
            "inputs": [
                {
                    "indexed": true,
                    "internalType": "address",
                    "name": "owner",
                    "type": "address"
                },
                {
                    "indexed": true,
                    "internalType": "address",
                    "name": "approved",
                    "type": "address"
                },
                {
                    "indexed": true,
                    "internalType": "uint256",
                    "name": "tokenId",
                    "type": "uint256"
                }
            ],
            "name": "Approval",
            "type": "event"
        },
        {
            "anonymous": false,
            "inputs": [
                {
                    "indexed": true,
                    "internalType": "address",
                    "name": "owner",
                    "type": "address"
                },
                {
                    "indexed": true,
                    "internalType": "address",
                    "name": "operator",
                    "type": "address"
                },
                {
                    "indexed": false,
                    "internalType": "bool",
                    "name": "approved",
                    "type": "bool"
                }
            ],
            "name": "ApprovalForAll",
            "type": "event"
        },
        {
            "anonymous": false,
            "inputs": [
                {
                    "indexed": true,
                    "internalType": "address",
                    "name": "from",
                    "type": "address"
                },
                {
                    "indexed": true,
                    "internalType": "address",
                    "name": "to",
                    "type": "address"
                },
                {
                    "indexed": true,
                    "internalType": "uint256",
                    "name": "tokenId",
                    "type": "uint256"
                }
            ],
            "name": "Transfer",
            "type": "event"
        },
        {
            "inputs": [
                {
                    "internalType": "address",
                    "name": "to",
                    "type": "address"
                },
                {
                    "internalType": "uint256",
                    "name": "tokenId",
                    "type": "uint256"
                }
            ],
            "name": "approve",
            "outputs": [],
            "stateMutability": "nonpayable",
            "type": "function"
        },
        {
            "inputs": [
                {
                    "internalType": "address",
                    "name": "owner",
                    "type": "address"
                }
            ],
            "name": "balanceOf",
            "outputs": [
                {
                    "internalType": "uint256",
                    "name": "",
                    "type": "uint256"
                }
            ],
            "stateMutability": "view",
            "type": "function"
        },
        {
            "inputs": [
                {
                    "internalType": "uint256",
                    "name": "tokenId",
                    "type": "uint256"
                }
            ],
            "name": "getApproved",
            "outputs": [
                {
                    "internalType": "address",
                    "name": "",
                    "type": "address"
                }
            ],
            "stateMutability": "view",
            "type": "function"
        },
        {
            "inputs": [
                {
                    "internalType": "address",
                    "name": "owner",
                    "type": "address"
                },
                {
                    "internalType": "address",
                    "name": "operator",
                    "type": "address"
                }
            ],
            "name": "isApprovedForAll",
            "outputs": [
                {
                    "internalType": "bool",
                    "name": "",
                    "type": "bool"
                }
            ],
            "stateMutability": "view",
            "type": "function"
        },
        {
            "inputs": [],
            "name": "mintNFT",
            "outputs": [],
            "stateMutability": "nonpayable",
            "type": "function"
        },
        {
            "inputs": [],
            "name": "name",
            "outputs": [
                {
                    "internalType": "string",
                    "name": "",
                    "type": "string"
                }
            ],
            "stateMutability": "view",
            "type": "function"
        },
        {
            "inputs": [
                {
                    "internalType": "uint256",
                    "name": "tokenId",
                    "type": "uint256"
                }
            ],
            "name": "ownerOf",
            "outputs": [
                {
                    "internalType": "address",
                    "name": "",
                    "type": "address"
                }
            ],
            "stateMutability": "view",
            "type": "function"
        },
        {
            "inputs": [
                {
                    "internalType": "uint256",
                    "name": "tokenId",
                    "type": "uint256"
                }
            ],
            "name": "pickRandomFirstWord",
            "outputs": [
                {
                    "internalType": "string",
                    "name": "",
                    "type": "string"
                }
            ],
            "stateMutability": "view",
            "type": "function"
        },
        {
            "inputs": [
                {
                    "internalType": "uint256",
                    "name": "tokenId",
                    "type": "uint256"
                }
            ],
            "name": "pickRandomSecondWord",
            "outputs": [
                {
                    "internalType": "string",
                    "name": "",
                    "type": "string"
                }
            ],
            "stateMutability": "view",
            "type": "function"
        },
        {
            "inputs": [
                {
                    "internalType": "uint256",
                    "name": "tokenId",
                    "type": "uint256"
                }
            ],
            "name": "pickRandomThirdWord",
            "outputs": [
                {
                    "internalType": "string",
                    "name": "",
                    "type": "string"
                }
            ],
            "stateMutability": "view",
            "type": "function"
        },
        {
            "inputs": [
                {
                    "internalType": "address",
                    "name": "from",
                    "type": "address"
                },
                {
                    "internalType": "address",
                    "name": "to",
                    "type": "address"
                },
                {
                    "internalType": "uint256",
                    "name": "tokenId",
                    "type": "uint256"
                }
            ],
            "name": "safeTransferFrom",
            "outputs": [],
            "stateMutability": "nonpayable",
            "type": "function"
        },
        {
            "inputs": [
                {
                    "internalType": "address",
                    "name": "from",
                    "type": "address"
                },
                {
                    "internalType": "address",
                    "name": "to",
                    "type": "address"
                },
                {
                    "internalType": "uint256",
                    "name": "tokenId",
                    "type": "uint256"
                },
                {
                    "internalType": "bytes",
                    "name": "_data",
                    "type": "bytes"
                }
            ],
            "name": "safeTransferFrom",
            "outputs": [],
            "stateMutability": "nonpayable",
            "type": "function"
        },
        {
            "inputs": [
                {
                    "internalType": "address",
                    "name": "operator",
                    "type": "address"
                },
                {
                    "internalType": "bool",
                    "name": "approved",
                    "type": "bool"
                }
            ],
            "name": "setApprovalForAll",
            "outputs": [],
            "stateMutability": "nonpayable",
            "type": "function"
        },
        {
            "inputs": [
                {
                    "internalType": "bytes4",
                    "name": "interfaceId",
                    "type": "bytes4"
                }
            ],
            "name": "supportsInterface",
            "outputs": [
                {
                    "internalType": "bool",
                    "name": "",
                    "type": "bool"
                }
            ],
            "stateMutability": "view",
            "type": "function"
        },
        {
            "inputs": [],
            "name": "symbol",
            "outputs": [
                {
                    "internalType": "string",
                    "name": "",
                    "type": "string"
                }
            ],
            "stateMutability": "view",
            "type": "function"
        },
        {
            "inputs": [
                {
                    "internalType": "uint256",
                    "name": "tokenId",
                    "type": "uint256"
                }
            ],
            "name": "tokenURI",
            "outputs": [
                {
                    "internalType": "string",
                    "name": "",
                    "type": "string"
                }
            ],
            "stateMutability": "view",
            "type": "function"
        },
        {
            "inputs": [
                {
                    "internalType": "address",
                    "name": "from",
                    "type": "address"
                },
                {
                    "internalType": "address",
                    "name": "to",
                    "type": "address"
                },
                {
                    "internalType": "uint256",
                    "name": "tokenId",
                    "type": "uint256"
                }
            ],
            "name": "transferFrom",
            "outputs": [],
            "stateMutability": "nonpayable",
            "type": "function"
        }
    ],
    "bytecode": "0x608060405260405180610160016040528061012f81526020016200468961012f9139600890805190602001906200003892919062000963565b506040518061022001604052806040518060400160405280600881526020017f4e6578745765656b00000000000000000000000000000000000000000000000081525081526020016040518060400160405280600881526020017f546f6d6f72726f7700000000000000000000000000000000000000000000000081525081526020016040518060400160405280600e81526020017f324d6f6e74687346726f6d4e6f7700000000000000000000000000000000000081525081526020016040518060400160405280600981526020017f4e6578744d6f6e7468000000000000000000000000000000000000000000000081525081526020016040518060400160405280600d81526020017f32486f75727346726f6d4e6f770000000000000000000000000000000000000081525081526020016040518060400160405280600d81526020017f5468654e65787434354d696e730000000000000000000000000000000000000081525081526020016040518060400160405280600b81526020017f5468654e6578745965617200000000000000000000000000000000000000000081525081526020016040518060400160405280600581526020017f546f64617900000000000000000000000000000000000000000000000000000081525081526020016040518060400160405280600881526020017f546869735965617200000000000000000000000000000000000000000000000081525081526020016040518060400160405280600881526020017f546869735765656b00000000000000000000000000000000000000000000000081525081526020016040518060400160405280600a81526020017f5468697353756e6461790000000000000000000000000000000000000000000081525081526020016040518060400160405280600a81526020017f546869734d6f6e6461790000000000000000000000000000000000000000000081525081526020016040518060400160405280600b81526020017f546869735475657364617900000000000000000000000000000000000000000081525081526020016040518060400160405280600d81526020017f546869735765646e65736461790000000000000000000000000000000000000081525081526020016040518060400160405280600c81526020017f546869735468757273646179000000000000000000000000000000000000000081525081526020016040518060400160405280600a81526020017f546869734672696461790000000000000000000000000000000000000000000081525081526020016040518060400160405280600c81526020017f5468697353617475726461790000000000000000000000000000000000000000815250815250600990601162000440929190620009f4565b5060405180602001604052806040518060400160405280600681526020017f57696c6c42650000000000000000000000000000000000000000000000000000815250815250600a9060016200049792919062000a5b565b50604051806101a001604052806040518060400160405280600a81526020017f496e6372656469626c650000000000000000000000000000000000000000000081525081526020016040518060400160405280600681526020017f4a6f796f7573000000000000000000000000000000000000000000000000000081525081526020016040518060400160405280600781526020017f416d617a696e670000000000000000000000000000000000000000000000000081525081526020016040518060400160405280600581526020017f526f75676800000000000000000000000000000000000000000000000000000081525081526020016040518060400160405280600c81526020017f46756c6c4f6647726f777468000000000000000000000000000000000000000081525081526020016040518060400160405280600b81526020017f4672757374726174696e6700000000000000000000000000000000000000000081525081526020016040518060400160405280600781526020017f417765736f6d650000000000000000000000000000000000000000000000000081525081526020016040518060400160405280600981526020017f456e6a6f7961626c65000000000000000000000000000000000000000000000081525081526020016040518060400160405280600e81526020017f496e746572657374696e672e2e2e00000000000000000000000000000000000081525081526020016040518060400160405280600381526020017f426164000000000000000000000000000000000000000000000000000000000081525081526020016040518060400160405280600e81526020017f5375706572466f7274756e61746500000000000000000000000000000000000081525081526020016040518060400160405280600a81526020017f4d7973746572696f75730000000000000000000000000000000000000000000081525081526020016040518060400160405280600a81526020017f496e7472696775696e6700000000000000000000000000000000000000000000815250815250600b90600d620007b392919062000ac2565b50348015620007c157600080fd5b506040518060400160405280600c81526020017f596f757220466f7274756e6500000000000000000000000000000000000000008152506040518060400160405280600581526020017f545255544800000000000000000000000000000000000000000000000000000081525081600090805190602001906200084692919062000963565b5080600190805190602001906200085f92919062000963565b50505062000891604051806060016040528060308152602001620047b8603091396200089760201b620010891760201c565b62000ce3565b6200093781604051602401620008ae919062000bf7565b6040516020818303038152906040527f41304fac000000000000000000000000000000000000000000000000000000007bffffffffffffffffffffffffffffffffffffffffffffffffffffffff19166020820180517bffffffffffffffffffffffffffffffffffffffffffffffffffffffff83818316178352505050506200093a60201b60201c565b50565b60008151905060006a636f6e736f6c652e6c6f679050602083016000808483855afa5050505050565b828054620009719062000c6d565b90600052602060002090601f016020900481019282620009955760008555620009e1565b82601f10620009b057805160ff1916838001178555620009e1565b82800160010185558215620009e1579182015b82811115620009e0578251825591602001919060010190620009c3565b5b509050620009f0919062000b29565b5090565b82805482825590600052602060002090810192821562000a48579160200282015b8281111562000a4757825182908051906020019062000a3692919062000963565b509160200191906001019062000a15565b5b50905062000a57919062000b48565b5090565b82805482825590600052602060002090810192821562000aaf579160200282015b8281111562000aae57825182908051906020019062000a9d92919062000963565b509160200191906001019062000a7c565b5b50905062000abe919062000b48565b5090565b82805482825590600052602060002090810192821562000b16579160200282015b8281111562000b1557825182908051906020019062000b0492919062000963565b509160200191906001019062000ae3565b5b50905062000b25919062000b48565b5090565b5b8082111562000b4457600081600090555060010162000b2a565b5090565b5b8082111562000b6c576000818162000b62919062000b70565b5060010162000b49565b5090565b50805462000b7e9062000c6d565b6000825580601f1062000b92575062000bb3565b601f01602090049060005260206000209081019062000bb2919062000b29565b5b50565b600062000bc38262000c1b565b62000bcf818562000c26565b935062000be181856020860162000c37565b62000bec8162000cd2565b840191505092915050565b6000602082019050818103600083015262000c13818462000bb6565b905092915050565b600081519050919050565b600082825260208201905092915050565b60005b8381101562000c5757808201518184015260208101905062000c3a565b8381111562000c67576000848401525b50505050565b6000600282049050600182168062000c8657607f821691505b6020821081141562000c9d5762000c9c62000ca3565b5b50919050565b7f4e487b7100000000000000000000000000000000000000000000000000000000600052602260045260246000fd5b6000601f19601f8301169050919050565b6139968062000cf36000396000f3fe608060405234801561001057600080fd5b506004361061010b5760003560e01c80636352211e116100a2578063b187301f11610071578063b187301f146102b6578063b88d4fde146102e6578063c575757a14610302578063c87b56dd14610332578063e985e9c5146103625761010b565b80636352211e1461021c57806370a082311461024c57806395d89b411461027c578063a22cb4651461029a5761010b565b806314f710fe116100de57806314f710fe146101aa57806323b872dd146101b45780632de38d68146101d057806342842e0e146102005761010b565b806301ffc9a71461011057806306fdde0314610140578063081812fc1461015e578063095ea7b31461018e575b600080fd5b61012a600480360381019061012591906124b5565b610392565b6040516101379190612bb0565b60405180910390f35b610148610474565b6040516101559190612bcb565b60405180910390f35b61017860048036038101906101739190612507565b610506565b6040516101859190612b49565b60405180910390f35b6101a860048036038101906101a39190612479565b61058b565b005b6101b26106a3565b005b6101ce60048036038101906101c99190612373565b610855565b005b6101ea60048036038101906101e59190612507565b6108b5565b6040516101f79190612bcb565b60405180910390f35b61021a60048036038101906102159190612373565b6109d3565b005b61023660048036038101906102319190612507565b6109f3565b6040516102439190612b49565b60405180910390f35b6102666004803603810190610261919061230e565b610aa5565b6040516102739190612e2b565b60405180910390f35b610284610b5d565b6040516102919190612bcb565b60405180910390f35b6102b460048036038101906102af919061243d565b610bef565b005b6102d060048036038101906102cb9190612507565b610c05565b6040516102dd9190612bcb565b60405180910390f35b61030060048036038101906102fb91906123c2565b610d23565b005b61031c60048036038101906103179190612507565b610d85565b6040516103299190612bcb565b60405180910390f35b61034c60048036038101906103479190612507565b610ea3565b6040516103599190612bcb565b60405180910390f35b61037c60048036038101906103779190612337565b610ff5565b6040516103899190612bb0565b60405180910390f35b60007f80ac58cd000000000000000000000000000000000000000000000000000000007bffffffffffffffffffffffffffffffffffffffffffffffffffffffff1916827bffffffffffffffffffffffffffffffffffffffffffffffffffffffff1916148061045d57507f5b5e139f000000000000000000000000000000000000000000000000000000007bffffffffffffffffffffffffffffffffffffffffffffffffffffffff1916827bffffffffffffffffffffffffffffffffffffffffffffffffffffffff1916145b8061046d575061046c82611122565b5b9050919050565b606060008054610483906130bf565b80601f01602080910402602001604051908101604052809291908181526020018280546104af906130bf565b80156104fc5780601f106104d1576101008083540402835291602001916104fc565b820191906000526020600020905b8154815290600101906020018083116104df57829003601f168201915b5050505050905090565b60006105118261118c565b610550576040517f08c379a000000000000000000000000000000000000000000000000000000000815260040161054790612dab565b60405180910390fd5b6004600083815260200190815260200160002060009054906101000a900473ffffffffffffffffffffffffffffffffffffffff169050919050565b6000610596826109f3565b90508073ffffffffffffffffffffffffffffffffffffffff168373ffffffffffffffffffffffffffffffffffffffff161415610607576040517f08c379a00000000000000000000000000000000000000000000000000000000081526004016105fe90612deb565b60405180910390fd5b8073ffffffffffffffffffffffffffffffffffffffff166106266111f8565b73ffffffffffffffffffffffffffffffffffffffff16148061065557506106548161064f6111f8565b610ff5565b5b610694576040517f08c379a000000000000000000000000000000000000000000000000000000000815260040161068b90612ceb565b60405180910390fd5b61069e8383611200565b505050565b60006106af60076112b9565b905060006106bc826108b5565b905060006106c983610c05565b905060006106d684610d85565b905060008383836040516020016106ef93929190612a02565b60405160208183030381529060405290506000600885858560405160200161071a9493929190612a33565b6040516020818303038152906040529050600061075f8361073a846112c7565b60405160200161074b929190612ac0565b6040516020818303038152906040526112c7565b90506000816040516020016107749190612b27565b60405160208183030381529060405290506107c36040518060400160405280601581526020017f0a2d2d2d2d2d2d2d2d2d2d2d2d2d2d2d2d2d2d2d2d0000000000000000000000815250611089565b6107cc81611089565b61080a6040518060400160405280601581526020017f2d2d2d2d2d2d2d2d2d2d2d2d2d2d2d2d2d2d2d2d0a0000000000000000000000815250611089565b6108143389611485565b61081e88826114a3565b6108286007611517565b61084b6040518060600160405280602381526020016138fe60239139893361152d565b5050505050505050565b6108666108606111f8565b826115cc565b6108a5576040517f08c379a000000000000000000000000000000000000000000000000000000000815260040161089c90612e0b565b60405180910390fd5b6108b08383836116aa565b505050565b606060006108e96108c584611911565b6040516020016108d59190612b05565b604051602081830303815290604052611abe565b9050600980549050816108fc919061316b565b905060098181548110610938577f4e487b7100000000000000000000000000000000000000000000000000000000600052603260045260246000fd5b90600052602060002001805461094d906130bf565b80601f0160208091040260200160405190810160405280929190818152602001828054610979906130bf565b80156109c65780601f1061099b576101008083540402835291602001916109c6565b820191906000526020600020905b8154815290600101906020018083116109a957829003601f168201915b5050505050915050919050565b6109ee83838360405180602001604052806000815250610d23565b505050565b6000806002600084815260200190815260200160002060009054906101000a900473ffffffffffffffffffffffffffffffffffffffff169050600073ffffffffffffffffffffffffffffffffffffffff168173ffffffffffffffffffffffffffffffffffffffff161415610a9c576040517f08c379a0000000000000000000000000000000000000000000000000000000008152600401610a9390612d2b565b60405180910390fd5b80915050919050565b60008073ffffffffffffffffffffffffffffffffffffffff168273ffffffffffffffffffffffffffffffffffffffff161415610b16576040517f08c379a0000000000000000000000000000000000000000000000000000000008152600401610b0d90612d0b565b60405180910390fd5b600360008373ffffffffffffffffffffffffffffffffffffffff1673ffffffffffffffffffffffffffffffffffffffff168152602001908152602001600020549050919050565b606060018054610b6c906130bf565b80601f0160208091040260200160405190810160405280929190818152602001828054610b98906130bf565b8015610be55780601f10610bba57610100808354040283529160200191610be5565b820191906000526020600020905b815481529060010190602001808311610bc857829003601f168201915b5050505050905090565b610c01610bfa6111f8565b8383611af1565b5050565b60606000610c39610c1584611911565b604051602001610c259190612a9e565b604051602081830303815290604052611abe565b9050600a8054905081610c4c919061316b565b9050600a8181548110610c88577f4e487b7100000000000000000000000000000000000000000000000000000000600052603260045260246000fd5b906000526020600020018054610c9d906130bf565b80601f0160208091040260200160405190810160405280929190818152602001828054610cc9906130bf565b8015610d165780601f10610ceb57610100808354040283529160200191610d16565b820191906000526020600020905b815481529060010190602001808311610cf957829003601f168201915b5050505050915050919050565b610d34610d2e6111f8565b836115cc565b610d73576040517f08c379a0000000000000000000000000000000000000000000000000000000008152600401610d6a90612e0b565b60405180910390fd5b610d7f84848484611c5e565b50505050565b60606000610db9610d9584611911565b604051602001610da59190612a7c565b604051602081830303815290604052611abe565b9050600b8054905081610dcc919061316b565b9050600b8181548110610e08577f4e487b7100000000000000000000000000000000000000000000000000000000600052603260045260246000fd5b906000526020600020018054610e1d906130bf565b80601f0160208091040260200160405190810160405280929190818152602001828054610e49906130bf565b8015610e965780601f10610e6b57610100808354040283529160200191610e96565b820191906000526020600020905b815481529060010190602001808311610e7957829003601f168201915b5050505050915050919050565b6060610eae8261118c565b610eed576040517f08c379a0000000000000000000000000000000000000000000000000000000008152600401610ee490612d8b565b60405180910390fd5b6000600660008481526020019081526020016000208054610f0d906130bf565b80601f0160208091040260200160405190810160405280929190818152602001828054610f39906130bf565b8015610f865780601f10610f5b57610100808354040283529160200191610f86565b820191906000526020600020905b815481529060010190602001808311610f6957829003601f168201915b505050505090506000610f97611cba565b9050600081511415610fad578192505050610ff0565b600082511115610fe2578082604051602001610fca9291906129de565b60405160208183030381529060405292505050610ff0565b610feb84611cd1565b925050505b919050565b6000600560008473ffffffffffffffffffffffffffffffffffffffff1673ffffffffffffffffffffffffffffffffffffffff16815260200190815260200160002060008373ffffffffffffffffffffffffffffffffffffffff1673ffffffffffffffffffffffffffffffffffffffff16815260200190815260200160002060009054906101000a900460ff16905092915050565b61111f8160405160240161109d9190612bcb565b6040516020818303038152906040527f41304fac000000000000000000000000000000000000000000000000000000007bffffffffffffffffffffffffffffffffffffffffffffffffffffffff19166020820180517bffffffffffffffffffffffffffffffffffffffffffffffffffffffff8381831617835250505050611d78565b50565b60007f01ffc9a7000000000000000000000000000000000000000000000000000000007bffffffffffffffffffffffffffffffffffffffffffffffffffffffff1916827bffffffffffffffffffffffffffffffffffffffffffffffffffffffff1916149050919050565b60008073ffffffffffffffffffffffffffffffffffffffff166002600084815260200190815260200160002060009054906101000a900473ffffffffffffffffffffffffffffffffffffffff1673ffffffffffffffffffffffffffffffffffffffff1614159050919050565b600033905090565b816004600083815260200190815260200160002060006101000a81548173ffffffffffffffffffffffffffffffffffffffff021916908373ffffffffffffffffffffffffffffffffffffffff160217905550808273ffffffffffffffffffffffffffffffffffffffff16611273836109f3565b73ffffffffffffffffffffffffffffffffffffffff167f8c5be1e5ebec7d5bd14f71427d1e84f3dd0314c0f7b2291e5b200ac8c7c3b92560405160405180910390a45050565b600081600001549050919050565b606060008251905060008114156112f05760405180602001604052806000815250915050611480565b600060036002836113019190612ef4565b61130b9190612f4a565b60046113179190612f7b565b905060006020826113289190612ef4565b67ffffffffffffffff811115611367577f4e487b7100000000000000000000000000000000000000000000000000000000600052604160045260246000fd5b6040519080825280601f01601f1916602001820160405280156113995781602001600182028036833780820191505090505b5090506000604051806060016040528060408152602001613921604091399050600181016020830160005b8681101561143d5760038101905062ffffff818a015116603f8160121c168401518060081b905060ff603f83600c1c1686015116810190508060081b905060ff603f8360061c1686015116810190508060081b905060ff603f831686015116810190508060e01b905080845260048401935050506113c4565b506003860660018114611457576002811461146757611472565b613d3d60f01b6002830352611472565b603d60f81b60018303525b508484525050819450505050505b919050565b61149f828260405180602001604052806000815250611da1565b5050565b6114ac8261118c565b6114eb576040517f08c379a00000000000000000000000000000000000000000000000000000000081526004016114e290612d4b565b60405180910390fd5b8060066000848152602001908152602001600020908051906020019061151292919061219a565b505050565b6001816000016000828254019250508190555050565b6115c783838360405160240161154593929190612bed565b6040516020818303038152906040527fe3849f79000000000000000000000000000000000000000000000000000000007bffffffffffffffffffffffffffffffffffffffffffffffffffffffff19166020820180517bffffffffffffffffffffffffffffffffffffffffffffffffffffffff8381831617835250505050611d78565b505050565b60006115d78261118c565b611616576040517f08c379a000000000000000000000000000000000000000000000000000000000815260040161160d90612ccb565b60405180910390fd5b6000611621836109f3565b90508073ffffffffffffffffffffffffffffffffffffffff168473ffffffffffffffffffffffffffffffffffffffff16148061166357506116628185610ff5565b5b806116a157508373ffffffffffffffffffffffffffffffffffffffff1661168984610506565b73ffffffffffffffffffffffffffffffffffffffff16145b91505092915050565b8273ffffffffffffffffffffffffffffffffffffffff166116ca826109f3565b73ffffffffffffffffffffffffffffffffffffffff1614611720576040517f08c379a000000000000000000000000000000000000000000000000000000000815260040161171790612c4b565b60405180910390fd5b600073ffffffffffffffffffffffffffffffffffffffff168273ffffffffffffffffffffffffffffffffffffffff161415611790576040517f08c379a000000000000000000000000000000000000000000000000000000000815260040161178790612c8b565b60405180910390fd5b61179b838383611dfc565b6117a6600082611200565b6001600360008573ffffffffffffffffffffffffffffffffffffffff1673ffffffffffffffffffffffffffffffffffffffff16815260200190815260200160002060008282546117f69190612fd5565b925050819055506001600360008473ffffffffffffffffffffffffffffffffffffffff1673ffffffffffffffffffffffffffffffffffffffff168152602001908152602001600020600082825461184d9190612ef4565b92505081905550816002600083815260200190815260200160002060006101000a81548173ffffffffffffffffffffffffffffffffffffffff021916908373ffffffffffffffffffffffffffffffffffffffff160217905550808273ffffffffffffffffffffffffffffffffffffffff168473ffffffffffffffffffffffffffffffffffffffff167fddf252ad1be2c89b69c2b068fc378daa952ba7f163c4a11628f55a4df523b3ef60405160405180910390a461190c838383611e01565b505050565b60606000821415611959576040518060400160405280600181526020017f30000000000000000000000000000000000000000000000000000000000000008152509050611ab9565b600082905060005b6000821461198b57808061197490613122565b915050600a826119849190612f4a565b9150611961565b60008167ffffffffffffffff8111156119cd577f4e487b7100000000000000000000000000000000000000000000000000000000600052604160045260246000fd5b6040519080825280601f01601f1916602001820160405280156119ff5781602001600182028036833780820191505090505b5090505b60008514611ab257600182611a189190612fd5565b9150600a85611a27919061316b565b6030611a339190612ef4565b60f81b818381518110611a6f577f4e487b7100000000000000000000000000000000000000000000000000000000600052603260045260246000fd5b60200101907effffffffffffffffffffffffffffffffffffffffffffffffffffffffffffff1916908160001a905350600a85611aab9190612f4a565b9450611a03565b8093505050505b919050565b600081604051602001611ad191906129c7565b6040516020818303038152906040528051906020012060001c9050919050565b8173ffffffffffffffffffffffffffffffffffffffff168373ffffffffffffffffffffffffffffffffffffffff161415611b60576040517f08c379a0000000000000000000000000000000000000000000000000000000008152600401611b5790612cab565b60405180910390fd5b80600560008573ffffffffffffffffffffffffffffffffffffffff1673ffffffffffffffffffffffffffffffffffffffff16815260200190815260200160002060008473ffffffffffffffffffffffffffffffffffffffff1673ffffffffffffffffffffffffffffffffffffffff16815260200190815260200160002060006101000a81548160ff0219169083151502179055508173ffffffffffffffffffffffffffffffffffffffff168373ffffffffffffffffffffffffffffffffffffffff167f17307eab39ab6107e8899845ad3d59bd9653f200f220920489ca2b5937696c3183604051611c519190612bb0565b60405180910390a3505050565b611c698484846116aa565b611c7584848484611e06565b611cb4576040517f08c379a0000000000000000000000000000000000000000000000000000000008152600401611cab90612c2b565b60405180910390fd5b50505050565b606060405180602001604052806000815250905090565b6060611cdc8261118c565b611d1b576040517f08c379a0000000000000000000000000000000000000000000000000000000008152600401611d1290612dcb565b60405180910390fd5b6000611d25611cba565b90506000815111611d455760405180602001604052806000815250611d70565b80611d4f84611911565b604051602001611d609291906129de565b6040516020818303038152906040525b915050919050565b60008151905060006a636f6e736f6c652e6c6f679050602083016000808483855afa5050505050565b611dab8383611f9d565b611db86000848484611e06565b611df7576040517f08c379a0000000000000000000000000000000000000000000000000000000008152600401611dee90612c2b565b60405180910390fd5b505050565b505050565b505050565b6000611e278473ffffffffffffffffffffffffffffffffffffffff16612177565b15611f90578373ffffffffffffffffffffffffffffffffffffffff1663150b7a02611e506111f8565b8786866040518563ffffffff1660e01b8152600401611e729493929190612b64565b602060405180830381600087803b158015611e8c57600080fd5b505af1925050508015611ebd57506040513d601f19601f82011682018060405250810190611eba91906124de565b60015b611f40573d8060008114611eed576040519150601f19603f3d011682016040523d82523d6000602084013e611ef2565b606091505b50600081511415611f38576040517f08c379a0000000000000000000000000000000000000000000000000000000008152600401611f2f90612c2b565b60405180910390fd5b805181602001fd5b63150b7a0260e01b7bffffffffffffffffffffffffffffffffffffffffffffffffffffffff1916817bffffffffffffffffffffffffffffffffffffffffffffffffffffffff191614915050611f95565b600190505b949350505050565b600073ffffffffffffffffffffffffffffffffffffffff168273ffffffffffffffffffffffffffffffffffffffff16141561200d576040517f08c379a000000000000000000000000000000000000000000000000000000000815260040161200490612d6b565b60405180910390fd5b6120168161118c565b15612056576040517f08c379a000000000000000000000000000000000000000000000000000000000815260040161204d90612c6b565b60405180910390fd5b61206260008383611dfc565b6001600360008473ffffffffffffffffffffffffffffffffffffffff1673ffffffffffffffffffffffffffffffffffffffff16815260200190815260200160002060008282546120b29190612ef4565b92505081905550816002600083815260200190815260200160002060006101000a81548173ffffffffffffffffffffffffffffffffffffffff021916908373ffffffffffffffffffffffffffffffffffffffff160217905550808273ffffffffffffffffffffffffffffffffffffffff16600073ffffffffffffffffffffffffffffffffffffffff167fddf252ad1be2c89b69c2b068fc378daa952ba7f163c4a11628f55a4df523b3ef60405160405180910390a461217360008383611e01565b5050565b6000808273ffffffffffffffffffffffffffffffffffffffff163b119050919050565b8280546121a6906130bf565b90600052602060002090601f0160209004810192826121c8576000855561220f565b82601f106121e157805160ff191683800117855561220f565b8280016001018555821561220f579182015b8281111561220e5782518255916020019190600101906121f3565b5b50905061221c9190612220565b5090565b5b80821115612239576000816000905550600101612221565b5090565b600061225061224b84612e6b565b612e46565b90508281526020810184848401111561226857600080fd5b61227384828561307d565b509392505050565b60008135905061228a816138a1565b92915050565b60008135905061229f816138b8565b92915050565b6000813590506122b4816138cf565b92915050565b6000815190506122c9816138cf565b92915050565b600082601f8301126122e057600080fd5b81356122f084826020860161223d565b91505092915050565b600081359050612308816138e6565b92915050565b60006020828403121561232057600080fd5b600061232e8482850161227b565b91505092915050565b6000806040838503121561234a57600080fd5b60006123588582860161227b565b92505060206123698582860161227b565b9150509250929050565b60008060006060848603121561238857600080fd5b60006123968682870161227b565b93505060206123a78682870161227b565b92505060406123b8868287016122f9565b9150509250925092565b600080600080608085870312156123d857600080fd5b60006123e68782880161227b565b94505060206123f78782880161227b565b9350506040612408878288016122f9565b925050606085013567ffffffffffffffff81111561242557600080fd5b612431878288016122cf565b91505092959194509250565b6000806040838503121561245057600080fd5b600061245e8582860161227b565b925050602061246f85828601612290565b9150509250929050565b6000806040838503121561248c57600080fd5b600061249a8582860161227b565b92505060206124ab858286016122f9565b9150509250929050565b6000602082840312156124c757600080fd5b60006124d5848285016122a5565b91505092915050565b6000602082840312156124f057600080fd5b60006124fe848285016122ba565b91505092915050565b60006020828403121561251957600080fd5b6000612527848285016122f9565b91505092915050565b61253981613009565b82525050565b6125488161301b565b82525050565b600061255982612eb1565b6125638185612ec7565b935061257381856020860161308c565b61257c81613258565b840191505092915050565b600061259282612ebc565b61259c8185612ed8565b93506125ac81856020860161308c565b6125b581613258565b840191505092915050565b60006125cb82612ebc565b6125d58185612ee9565b93506125e581856020860161308c565b80840191505092915050565b600081546125fe816130bf565b6126088186612ee9565b94506001821660008114612623576001811461263457612667565b60ff19831686528186019350612667565b61263d85612e9c565b60005b8381101561265f57815481890152600182019150602081019050612640565b838801955050505b50505092915050565b600061267d603283612ed8565b915061268882613269565b604082019050919050565b60006126a0602583612ed8565b91506126ab826132b8565b604082019050919050565b60006126c3601c83612ed8565b91506126ce82613307565b602082019050919050565b60006126e6600a83612ee9565b91506126f182613330565b600a82019050919050565b6000612709602483612ed8565b915061271482613359565b604082019050919050565b600061272c601983612ed8565b9150612737826133a8565b602082019050919050565b600061274f602c83612ed8565b915061275a826133d1565b604082019050919050565b6000612772600d83612ee9565b915061277d82613420565b600d82019050919050565b6000612795603883612ed8565b91506127a082613449565b604082019050919050565b60006127b8602a83612ed8565b91506127c382613498565b604082019050919050565b60006127db602983612ed8565b91506127e6826134e7565b604082019050919050565b60006127fe602e83612ed8565b915061280982613536565b604082019050919050565b6000612821600b83612ee9565b915061282c82613585565b600b82019050919050565b6000612844600283612ee9565b915061284f826135ae565b600282019050919050565b6000612867602083612ed8565b9150612872826135d7565b602082019050919050565b600061288a603183612ed8565b915061289582613600565b604082019050919050565b60006128ad602c83612ed8565b91506128b88261364f565b604082019050919050565b60006128d0602f83612ed8565b91506128db8261369e565b604082019050919050565b60006128f3606a83612ee9565b91506128fe826136ed565b606a82019050919050565b6000612916600a83612ee9565b915061292182613788565b600a82019050919050565b6000612939602183612ed8565b9150612944826137b1565b604082019050919050565b600061295c600a83612ee9565b915061296782613800565b600a82019050919050565b600061297f601d83612ee9565b915061298a82613829565b601d82019050919050565b60006129a2603183612ed8565b91506129ad82613852565b604082019050919050565b6129c181613073565b82525050565b60006129d382846125c0565b915081905092915050565b60006129ea82856125c0565b91506129f682846125c0565b91508190509392505050565b6000612a0e82866125c0565b9150612a1a82856125c0565b9150612a2682846125c0565b9150819050949350505050565b6000612a3f82876125f1565b9150612a4b82866125c0565b9150612a5782856125c0565b9150612a6382846125c0565b9150612a6e82612765565b915081905095945050505050565b6000612a87826126d9565b9150612a9382846125c0565b915081905092915050565b6000612aa982612814565b9150612ab582846125c0565b915081905092915050565b6000612acb82612909565b9150612ad782856125c0565b9150612ae2826128e6565b9150612aee82846125c0565b9150612af982612837565b91508190509392505050565b6000612b108261294f565b9150612b1c82846125c0565b915081905092915050565b6000612b3282612972565b9150612b3e82846125c0565b915081905092915050565b6000602082019050612b5e6000830184612530565b92915050565b6000608082019050612b796000830187612530565b612b866020830186612530565b612b9360408301856129b8565b8181036060830152612ba5818461254e565b905095945050505050565b6000602082019050612bc5600083018461253f565b92915050565b60006020820190508181036000830152612be58184612587565b905092915050565b60006060820190508181036000830152612c078186612587565b9050612c1660208301856129b8565b612c236040830184612530565b949350505050565b60006020820190508181036000830152612c4481612670565b9050919050565b60006020820190508181036000830152612c6481612693565b9050919050565b60006020820190508181036000830152612c84816126b6565b9050919050565b60006020820190508181036000830152612ca4816126fc565b9050919050565b60006020820190508181036000830152612cc48161271f565b9050919050565b60006020820190508181036000830152612ce481612742565b9050919050565b60006020820190508181036000830152612d0481612788565b9050919050565b60006020820190508181036000830152612d24816127ab565b9050919050565b60006020820190508181036000830152612d44816127ce565b9050919050565b60006020820190508181036000830152612d64816127f1565b9050919050565b60006020820190508181036000830152612d848161285a565b9050919050565b60006020820190508181036000830152612da48161287d565b9050919050565b60006020820190508181036000830152612dc4816128a0565b9050919050565b60006020820190508181036000830152612de4816128c3565b9050919050565b60006020820190508181036000830152612e048161292c565b9050919050565b60006020820190508181036000830152612e2481612995565b9050919050565b6000602082019050612e4060008301846129b8565b92915050565b6000612e50612e61565b9050612e5c82826130f1565b919050565b6000604051905090565b600067ffffffffffffffff821115612e8657612e85613229565b5b612e8f82613258565b9050602081019050919050565b60008190508160005260206000209050919050565b600081519050919050565b600081519050919050565b600082825260208201905092915050565b600082825260208201905092915050565b600081905092915050565b6000612eff82613073565b9150612f0a83613073565b9250827fffffffffffffffffffffffffffffffffffffffffffffffffffffffffffffffff03821115612f3f57612f3e61319c565b5b828201905092915050565b6000612f5582613073565b9150612f6083613073565b925082612f7057612f6f6131cb565b5b828204905092915050565b6000612f8682613073565b9150612f9183613073565b9250817fffffffffffffffffffffffffffffffffffffffffffffffffffffffffffffffff0483118215151615612fca57612fc961319c565b5b828202905092915050565b6000612fe082613073565b9150612feb83613073565b925082821015612ffe57612ffd61319c565b5b828203905092915050565b600061301482613053565b9050919050565b60008115159050919050565b60007fffffffff0000000000000000000000000000000000000000000000000000000082169050919050565b600073ffffffffffffffffffffffffffffffffffffffff82169050919050565b6000819050919050565b82818337600083830152505050565b60005b838110156130aa57808201518184015260208101905061308f565b838111156130b9576000848401525b50505050565b600060028204905060018216806130d757607f821691505b602082108114156130eb576130ea6131fa565b5b50919050565b6130fa82613258565b810181811067ffffffffffffffff8211171561311957613118613229565b5b80604052505050565b600061312d82613073565b91507fffffffffffffffffffffffffffffffffffffffffffffffffffffffffffffffff8214156131605761315f61319c565b5b600182019050919050565b600061317682613073565b915061318183613073565b925082613191576131906131cb565b5b828206905092915050565b7f4e487b7100000000000000000000000000000000000000000000000000000000600052601160045260246000fd5b7f4e487b7100000000000000000000000000000000000000000000000000000000600052601260045260246000fd5b7f4e487b7100000000000000000000000000000000000000000000000000000000600052602260045260246000fd5b7f4e487b7100000000000000000000000000000000000000000000000000000000600052604160045260246000fd5b6000601f19601f8301169050919050565b7f4552433732313a207472616e7366657220746f206e6f6e20455243373231526560008201527f63656976657220696d706c656d656e7465720000000000000000000000000000602082015250565b7f4552433732313a207472616e736665722066726f6d20696e636f72726563742060008201527f6f776e6572000000000000000000000000000000000000000000000000000000602082015250565b7f4552433732313a20746f6b656e20616c7265616479206d696e74656400000000600082015250565b7f54484952445f574f524400000000000000000000000000000000000000000000600082015250565b7f4552433732313a207472616e7366657220746f20746865207a65726f2061646460008201527f7265737300000000000000000000000000000000000000000000000000000000602082015250565b7f4552433732313a20617070726f766520746f2063616c6c657200000000000000600082015250565b7f4552433732313a206f70657261746f7220717565727920666f72206e6f6e657860008201527f697374656e7420746f6b656e0000000000000000000000000000000000000000602082015250565b7f3c2f746578743e3c2f7376673e00000000000000000000000000000000000000600082015250565b7f4552433732313a20617070726f76652063616c6c6572206973206e6f74206f7760008201527f6e6572206e6f7220617070726f76656420666f7220616c6c0000000000000000602082015250565b7f4552433732313a2062616c616e636520717565727920666f7220746865207a6560008201527f726f206164647265737300000000000000000000000000000000000000000000602082015250565b7f4552433732313a206f776e657220717565727920666f72206e6f6e657869737460008201527f656e7420746f6b656e0000000000000000000000000000000000000000000000602082015250565b7f45524337323155524953746f726167653a2055524920736574206f66206e6f6e60008201527f6578697374656e7420746f6b656e000000000000000000000000000000000000602082015250565b7f5365636f6e645f574f5244000000000000000000000000000000000000000000600082015250565b7f227d000000000000000000000000000000000000000000000000000000000000600082015250565b7f4552433732313a206d696e7420746f20746865207a65726f2061646472657373600082015250565b7f45524337323155524953746f726167653a2055524920717565727920666f722060008201527f6e6f6e6578697374656e7420746f6b656e000000000000000000000000000000602082015250565b7f4552433732313a20617070726f76656420717565727920666f72206e6f6e657860008201527f697374656e7420746f6b656e0000000000000000000000000000000000000000602082015250565b7f4552433732314d657461646174613a2055524920717565727920666f72206e6f60008201527f6e6578697374656e7420746f6b656e0000000000000000000000000000000000602082015250565b7f222c20226465736372697074696f6e223a20225468652074727574682c206f6e60008201527f6c79207468652074727574682c206e6f7468696e67206275742074686520747260208201527f757468222c2022696d616765223a2022646174613a696d6167652f7376672b7860408201527f6d6c3b6261736536342c00000000000000000000000000000000000000000000606082015250565b7f7b226e616d65223a202200000000000000000000000000000000000000000000600082015250565b7f4552433732313a20617070726f76616c20746f2063757272656e74206f776e6560008201527f7200000000000000000000000000000000000000000000000000000000000000602082015250565b7f46495253545f574f524400000000000000000000000000000000000000000000600082015250565b7f646174613a6170706c69636174696f6e2f6a736f6e3b6261736536342c000000600082015250565b7f4552433732313a207472616e736665722063616c6c6572206973206e6f74206f60008201527f776e6572206e6f7220617070726f766564000000000000000000000000000000602082015250565b6138aa81613009565b81146138b557600080fd5b50565b6138c18161301b565b81146138cc57600080fd5b50565b6138d881613027565b81146138e357600080fd5b50565b6138ef81613073565b81146138fa57600080fd5b5056fe4e465420772f20494420257320686173206265656e206d696e74656420746f3a2025734142434445464748494a4b4c4d4e4f505152535455565758595a6162636465666768696a6b6c6d6e6f707172737475767778797a303132333435363738392b2fa264697066735822122071a354e9c863651425c5cdba5b9fe2ea1bb5005d9ee7b550dc040ce7d3480b0264736f6c634300080100333c73766720786d6c6e733d27687474703a2f2f7777772e77332e6f72672f323030302f73766727207072657365727665417370656374526174696f3d27784d696e594d696e206d656574272076696577426f783d273020302033353020333530273e3c7374796c653e2e62617365207b2066696c6c3a2077686974653b20666f6e742d66616d696c793a2073657269663b20666f6e742d73697a653a20323470783b207d3c2f7374796c653e3c726563742077696474683d273130302527206865696768743d2731303025272066696c6c3d27626c61636b27202f3e3c7465787420783d273530252720793d273530252720636c6173733d27626173652720646f6d696e616e742d626173656c696e653d276d6964646c652720746578742d616e63686f723d276d6964646c65273e5468652074727574682c206f6e6c79207468652074727574682c206e6f7468696e672062757420746865207472757468",
    "linkReferences": {},
    "deployedLinkReferences": {}
}