{
    "_format": "hh-sol-artifact-1",
    "contractName": "MyNFT",
    "sourceName": "contracts/mynft.sol",
    "abi": [
        {
            "inputs": [],
            "stateMutability": "nonpayable",
            "type": "constructor"
        },
        {
            "anonymous": false,
            "inputs": [
                {
                    "indexed": true,
                    "internalType": "address",
                    "name": "owner",
                    "type": "address"
                },
                {
                    "indexed": true,
                    "internalType": "address",
                    "name": "approved",
                    "type": "address"
                },
                {
                    "indexed": true,
                    "internalType": "uint256",
                    "name": "tokenId",
                    "type": "uint256"
                }
            ],
            "name": "Approval",
            "type": "event"
        },
        {
            "anonymous": false,
            "inputs": [
                {
                    "indexed": true,
                    "internalType": "address",
                    "name": "owner",
                    "type": "address"
                },
                {
                    "indexed": true,
                    "internalType": "address",
                    "name": "operator",
                    "type": "address"
                },
                {
                    "indexed": false,
                    "internalType": "bool",
                    "name": "approved",
                    "type": "bool"
                }
            ],
            "name": "ApprovalForAll",
            "type": "event"
        },
        {
            "anonymous": false,
            "inputs": [
                {
                    "indexed": false,
                    "internalType": "address",
                    "name": "sender",
                    "type": "address"
                },
                {
                    "indexed": false,
                    "internalType": "uint256",
                    "name": "tokenId",
                    "type": "uint256"
                }
            ],
            "name": "NewNFTMinted",
            "type": "event"
        },
        {
            "anonymous": false,
            "inputs": [
                {
                    "indexed": true,
                    "internalType": "address",
                    "name": "from",
                    "type": "address"
                },
                {
                    "indexed": true,
                    "internalType": "address",
                    "name": "to",
                    "type": "address"
                },
                {
                    "indexed": true,
                    "internalType": "uint256",
                    "name": "tokenId",
                    "type": "uint256"
                }
            ],
            "name": "Transfer",
            "type": "event"
        },
        {
            "inputs": [
                {
                    "internalType": "address",
                    "name": "to",
                    "type": "address"
                },
                {
                    "internalType": "uint256",
                    "name": "tokenId",
                    "type": "uint256"
                }
            ],
            "name": "approve",
            "outputs": [],
            "stateMutability": "nonpayable",
            "type": "function"
        },
        {
            "inputs": [
                {
                    "internalType": "address",
                    "name": "owner",
                    "type": "address"
                }
            ],
            "name": "balanceOf",
            "outputs": [
                {
                    "internalType": "uint256",
                    "name": "",
                    "type": "uint256"
                }
            ],
            "stateMutability": "view",
            "type": "function"
        },
        {
            "inputs": [
                {
                    "internalType": "uint256",
                    "name": "tokenId",
                    "type": "uint256"
                }
            ],
            "name": "getApproved",
            "outputs": [
                {
                    "internalType": "address",
                    "name": "",
                    "type": "address"
                }
            ],
            "stateMutability": "view",
            "type": "function"
        },
        {
            "inputs": [
                {
                    "internalType": "address",
                    "name": "owner",
                    "type": "address"
                },
                {
                    "internalType": "address",
                    "name": "operator",
                    "type": "address"
                }
            ],
            "name": "isApprovedForAll",
            "outputs": [
                {
                    "internalType": "bool",
                    "name": "",
                    "type": "bool"
                }
            ],
            "stateMutability": "view",
            "type": "function"
        },
        {
            "inputs": [],
            "name": "mintNFT",
            "outputs": [],
            "stateMutability": "nonpayable",
            "type": "function"
        },
        {
            "inputs": [],
            "name": "name",
            "outputs": [
                {
                    "internalType": "string",
                    "name": "",
                    "type": "string"
                }
            ],
            "stateMutability": "view",
            "type": "function"
        },
        {
            "inputs": [
                {
                    "internalType": "uint256",
                    "name": "tokenId",
                    "type": "uint256"
                }
            ],
            "name": "ownerOf",
            "outputs": [
                {
                    "internalType": "address",
                    "name": "",
                    "type": "address"
                }
            ],
            "stateMutability": "view",
            "type": "function"
        },
        {
            "inputs": [
                {
                    "internalType": "uint256",
                    "name": "tokenId",
                    "type": "uint256"
                }
            ],
            "name": "pickRandomColor",
            "outputs": [
                {
                    "internalType": "string",
                    "name": "",
                    "type": "string"
                }
            ],
            "stateMutability": "view",
            "type": "function"
        },
        {
            "inputs": [
                {
                    "internalType": "uint256",
                    "name": "tokenId",
                    "type": "uint256"
                }
            ],
            "name": "pickRandomFirstWord",
            "outputs": [
                {
                    "internalType": "string",
                    "name": "",
                    "type": "string"
                }
            ],
            "stateMutability": "view",
            "type": "function"
        },
        {
            "inputs": [
                {
                    "internalType": "uint256",
                    "name": "tokenId",
                    "type": "uint256"
                }
            ],
            "name": "pickRandomSecondWord",
            "outputs": [
                {
                    "internalType": "string",
                    "name": "",
                    "type": "string"
                }
            ],
            "stateMutability": "view",
            "type": "function"
        },
        {
            "inputs": [
                {
                    "internalType": "uint256",
                    "name": "tokenId",
                    "type": "uint256"
                }
            ],
            "name": "pickRandomThirdWord",
            "outputs": [
                {
                    "internalType": "string",
                    "name": "",
                    "type": "string"
                }
            ],
            "stateMutability": "view",
            "type": "function"
        },
        {
            "inputs": [
                {
                    "internalType": "address",
                    "name": "from",
                    "type": "address"
                },
                {
                    "internalType": "address",
                    "name": "to",
                    "type": "address"
                },
                {
                    "internalType": "uint256",
                    "name": "tokenId",
                    "type": "uint256"
                }
            ],
            "name": "safeTransferFrom",
            "outputs": [],
            "stateMutability": "nonpayable",
            "type": "function"
        },
        {
            "inputs": [
                {
                    "internalType": "address",
                    "name": "from",
                    "type": "address"
                },
                {
                    "internalType": "address",
                    "name": "to",
                    "type": "address"
                },
                {
                    "internalType": "uint256",
                    "name": "tokenId",
                    "type": "uint256"
                },
                {
                    "internalType": "bytes",
                    "name": "data",
                    "type": "bytes"
                }
            ],
            "name": "safeTransferFrom",
            "outputs": [],
            "stateMutability": "nonpayable",
            "type": "function"
        },
        {
            "inputs": [
                {
                    "internalType": "address",
                    "name": "operator",
                    "type": "address"
                },
                {
                    "internalType": "bool",
                    "name": "approved",
                    "type": "bool"
                }
            ],
            "name": "setApprovalForAll",
            "outputs": [],
            "stateMutability": "nonpayable",
            "type": "function"
        },
        {
            "inputs": [
                {
                    "internalType": "bytes4",
                    "name": "interfaceId",
                    "type": "bytes4"
                }
            ],
            "name": "supportsInterface",
            "outputs": [
                {
                    "internalType": "bool",
                    "name": "",
                    "type": "bool"
                }
            ],
            "stateMutability": "view",
            "type": "function"
        },
        {
            "inputs": [],
            "name": "symbol",
            "outputs": [
                {
                    "internalType": "string",
                    "name": "",
                    "type": "string"
                }
            ],
            "stateMutability": "view",
            "type": "function"
        },
        {
            "inputs": [
                {
                    "internalType": "uint256",
                    "name": "tokenId",
                    "type": "uint256"
                }
            ],
            "name": "tokenURI",
            "outputs": [
                {
                    "internalType": "string",
                    "name": "",
                    "type": "string"
                }
            ],
            "stateMutability": "view",
            "type": "function"
        },
        {
            "inputs": [
                {
                    "internalType": "address",
                    "name": "from",
                    "type": "address"
                },
                {
                    "internalType": "address",
                    "name": "to",
                    "type": "address"
                },
                {
                    "internalType": "uint256",
                    "name": "tokenId",
                    "type": "uint256"
                }
            ],
            "name": "transferFrom",
            "outputs": [],
            "stateMutability": "nonpayable",
            "type": "function"
        }
    ],
    "bytecode": "0x608060405260405180610100016040528060d381526020016200482460d39139600890805190602001906200003692919062000b88565b506040518060800160405280605681526020016200492760569139600990805190602001906200006892919062000b88565b506040518061022001604052806040518060400160405280600881526020017f4e6578745765656b00000000000000000000000000000000000000000000000081525081526020016040518060400160405280600881526020017f546f6d6f72726f7700000000000000000000000000000000000000000000000081525081526020016040518060400160405280600e81526020017f324d6f6e74687346726f6d4e6f7700000000000000000000000000000000000081525081526020016040518060400160405280600981526020017f4e6578744d6f6e7468000000000000000000000000000000000000000000000081525081526020016040518060400160405280600d81526020017f32486f75727346726f6d4e6f770000000000000000000000000000000000000081525081526020016040518060400160405280600d81526020017f5468654e65787434354d696e730000000000000000000000000000000000000081525081526020016040518060400160405280600b81526020017f5468654e6578745965617200000000000000000000000000000000000000000081525081526020016040518060400160405280600581526020017f546f64617900000000000000000000000000000000000000000000000000000081525081526020016040518060400160405280600881526020017f546869735965617200000000000000000000000000000000000000000000000081525081526020016040518060400160405280600881526020017f546869735765656b00000000000000000000000000000000000000000000000081525081526020016040518060400160405280600a81526020017f5468697353756e6461790000000000000000000000000000000000000000000081525081526020016040518060400160405280600a81526020017f546869734d6f6e6461790000000000000000000000000000000000000000000081525081526020016040518060400160405280600b81526020017f546869735475657364617900000000000000000000000000000000000000000081525081526020016040518060400160405280600d81526020017f546869735765646e65736461790000000000000000000000000000000000000081525081526020016040518060400160405280600c81526020017f546869735468757273646179000000000000000000000000000000000000000081525081526020016040518060400160405280600a81526020017f546869734672696461790000000000000000000000000000000000000000000081525081526020016040518060400160405280600c81526020017f5468697353617475726461790000000000000000000000000000000000000000815250815250600a9060116200047092919062000c19565b5060405180602001604052806040518060400160405280600681526020017f57696c6c42650000000000000000000000000000000000000000000000000000815250815250600b906001620004c792919062000c80565b50604051806101a001604052806040518060400160405280600a81526020017f496e6372656469626c650000000000000000000000000000000000000000000081525081526020016040518060400160405280600681526020017f4a6f796f7573000000000000000000000000000000000000000000000000000081525081526020016040518060400160405280600781526020017f416d617a696e670000000000000000000000000000000000000000000000000081525081526020016040518060400160405280600581526020017f526f75676800000000000000000000000000000000000000000000000000000081525081526020016040518060400160405280600c81526020017f46756c6c4f6647726f777468000000000000000000000000000000000000000081525081526020016040518060400160405280600b81526020017f4672757374726174696e6700000000000000000000000000000000000000000081525081526020016040518060400160405280600781526020017f417765736f6d650000000000000000000000000000000000000000000000000081525081526020016040518060400160405280600981526020017f456e6a6f7961626c65000000000000000000000000000000000000000000000081525081526020016040518060400160405280600e81526020017f496e746572657374696e672e2e2e00000000000000000000000000000000000081525081526020016040518060400160405280600381526020017f426164000000000000000000000000000000000000000000000000000000000081525081526020016040518060400160405280600e81526020017f5375706572466f7274756e61746500000000000000000000000000000000000081525081526020016040518060400160405280600a81526020017f4d7973746572696f75730000000000000000000000000000000000000000000081525081526020016040518060400160405280600a81526020017f496e7472696775696e6700000000000000000000000000000000000000000000815250815250600c90600d620007e392919062000ce7565b506040518061010001604052806040518060400160405280600681526020017f707572706c65000000000000000000000000000000000000000000000000000081525081526020016040518060400160405280600581526020017f677265656e00000000000000000000000000000000000000000000000000000081525081526020016040518060400160405280600581526020017f626c61636b00000000000000000000000000000000000000000000000000000081525081526020016040518060400160405280600681526020017f6f72616e6765000000000000000000000000000000000000000000000000000081525081526020016040518060400160405280600481526020017f626c75650000000000000000000000000000000000000000000000000000000081525081526020016040518060400160405280600381526020017f726564000000000000000000000000000000000000000000000000000000000081525081526020016040518060400160405280600581526020017f62726f776e00000000000000000000000000000000000000000000000000000081525081526020016040518060400160405280600481526020017f6772657900000000000000000000000000000000000000000000000000000000815250815250600d906008620009d892919062000d4e565b50348015620009e657600080fd5b506040518060400160405280601181526020017f596f7572205472756520466f7274756e650000000000000000000000000000008152506040518060400160405280600581526020017f5452555448000000000000000000000000000000000000000000000000000000815250816000908051906020019062000a6b92919062000b88565b50806001908051906020019062000a8492919062000b88565b50505062000ab6604051806060016040528060308152602001620048f76030913962000abc60201b620011ac1760201c565b62000f6f565b62000b5c8160405160240162000ad3919062000e83565b6040516020818303038152906040527f41304fac000000000000000000000000000000000000000000000000000000007bffffffffffffffffffffffffffffffffffffffffffffffffffffffff19166020820180517bffffffffffffffffffffffffffffffffffffffffffffffffffffffff838183161783525050505062000b5f60201b60201c565b50565b60008151905060006a636f6e736f6c652e6c6f679050602083016000808483855afa5050505050565b82805462000b969062000ef9565b90600052602060002090601f01602090048101928262000bba576000855562000c06565b82601f1062000bd557805160ff191683800117855562000c06565b8280016001018555821562000c06579182015b8281111562000c0557825182559160200191906001019062000be8565b5b50905062000c15919062000db5565b5090565b82805482825590600052602060002090810192821562000c6d579160200282015b8281111562000c6c57825182908051906020019062000c5b92919062000b88565b509160200191906001019062000c3a565b5b50905062000c7c919062000dd4565b5090565b82805482825590600052602060002090810192821562000cd4579160200282015b8281111562000cd357825182908051906020019062000cc292919062000b88565b509160200191906001019062000ca1565b5b50905062000ce3919062000dd4565b5090565b82805482825590600052602060002090810192821562000d3b579160200282015b8281111562000d3a57825182908051906020019062000d2992919062000b88565b509160200191906001019062000d08565b5b50905062000d4a919062000dd4565b5090565b82805482825590600052602060002090810192821562000da2579160200282015b8281111562000da157825182908051906020019062000d9092919062000b88565b509160200191906001019062000d6f565b5b50905062000db1919062000dd4565b5090565b5b8082111562000dd057600081600090555060010162000db6565b5090565b5b8082111562000df8576000818162000dee919062000dfc565b5060010162000dd5565b5090565b50805462000e0a9062000ef9565b6000825580601f1062000e1e575062000e3f565b601f01602090049060005260206000209081019062000e3e919062000db5565b5b50565b600062000e4f8262000ea7565b62000e5b818562000eb2565b935062000e6d81856020860162000ec3565b62000e788162000f5e565b840191505092915050565b6000602082019050818103600083015262000e9f818462000e42565b905092915050565b600081519050919050565b600082825260208201905092915050565b60005b8381101562000ee357808201518184015260208101905062000ec6565b8381111562000ef3576000848401525b50505050565b6000600282049050600182168062000f1257607f821691505b6020821081141562000f295762000f2862000f2f565b5b50919050565b7f4e487b7100000000000000000000000000000000000000000000000000000000600052602260045260246000fd5b6000601f19601f8301169050919050565b6138a58062000f7f6000396000f3fe608060405234801561001057600080fd5b50600436106101165760003560e01c80636352211e116100a2578063b187301f11610071578063b187301f146102f1578063b88d4fde14610321578063c575757a1461033d578063c87b56dd1461036d578063e985e9c51461039d57610116565b80636352211e1461025757806370a082311461028757806395d89b41146102b7578063a22cb465146102d557610116565b806314f710fe116100e957806314f710fe146101b557806323b872dd146101bf5780632de38d68146101db57806342842e0e1461020b578063514dc8c61461022757610116565b806301ffc9a71461011b57806306fdde031461014b578063081812fc14610169578063095ea7b314610199575b600080fd5b6101356004803603810190610130919061259b565b6103cd565b6040516101429190612c78565b60405180910390f35b6101536104af565b6040516101609190612c93565b60405180910390f35b610183600480360381019061017e91906125ed565b610541565b6040516101909190612be8565b60405180910390f35b6101b360048036038101906101ae919061255f565b610587565b005b6101bd61069f565b005b6101d960048036038101906101d49190612459565b610899565b005b6101f560048036038101906101f091906125ed565b6108f9565b6040516102029190612c93565b60405180910390f35b61022560048036038101906102209190612459565b610a17565b005b610241600480360381019061023c91906125ed565b610a37565b60405161024e9190612c93565b60405180910390f35b610271600480360381019061026c91906125ed565b610b55565b60405161027e9190612be8565b60405180910390f35b6102a1600480360381019061029c91906123f4565b610c07565b6040516102ae9190612e73565b60405180910390f35b6102bf610cbf565b6040516102cc9190612c93565b60405180910390f35b6102ef60048036038101906102ea9190612523565b610d51565b005b61030b600480360381019061030691906125ed565b610d67565b6040516103189190612c93565b60405180910390f35b61033b600480360381019061033691906124a8565b610e85565b005b610357600480360381019061035291906125ed565b610ee7565b6040516103649190612c93565b60405180910390f35b610387600480360381019061038291906125ed565b611005565b6040516103949190612c93565b60405180910390f35b6103b760048036038101906103b2919061241d565b611118565b6040516103c49190612c78565b60405180910390f35b60007f80ac58cd000000000000000000000000000000000000000000000000000000007bffffffffffffffffffffffffffffffffffffffffffffffffffffffff1916827bffffffffffffffffffffffffffffffffffffffffffffffffffffffff1916148061049857507f5b5e139f000000000000000000000000000000000000000000000000000000007bffffffffffffffffffffffffffffffffffffffffffffffffffffffff1916827bffffffffffffffffffffffffffffffffffffffffffffffffffffffff1916145b806104a857506104a782611245565b5b9050919050565b6060600080546104be90613107565b80601f01602080910402602001604051908101604052809291908181526020018280546104ea90613107565b80156105375780601f1061050c57610100808354040283529160200191610537565b820191906000526020600020905b81548152906001019060200180831161051a57829003601f168201915b5050505050905090565b600061054c826112af565b6004600083815260200190815260200160002060009054906101000a900473ffffffffffffffffffffffffffffffffffffffff169050919050565b600061059282610b55565b90508073ffffffffffffffffffffffffffffffffffffffff168373ffffffffffffffffffffffffffffffffffffffff161415610603576040517f08c379a00000000000000000000000000000000000000000000000000000000081526004016105fa90612e33565b60405180910390fd5b8073ffffffffffffffffffffffffffffffffffffffff166106226112fa565b73ffffffffffffffffffffffffffffffffffffffff16148061065157506106508161064b6112fa565b611118565b5b610690576040517f08c379a000000000000000000000000000000000000000000000000000000000815260040161068790612dd3565b60405180910390fd5b61069a8383611302565b505050565b60006106ab60076113bb565b905060006106b8826108f9565b905060006106c583610d67565b905060006106d284610ee7565b905060008383836040516020016106eb93929190612a7f565b6040516020818303038152906040529050600061070786610a37565b905060006008826009856040516020016107249493929190612ab0565b6040516020818303038152906040529050600061076984610744846113c9565b604051602001610755929190612b1b565b6040516020818303038152906040526113c9565b905060008160405160200161077e9190612b60565b60405160208183030381529060405290506107cd6040518060400160405280601581526020017f0a2d2d2d2d2d2d2d2d2d2d2d2d2d2d2d2d2d2d2d2d00000000000000000000008152506111ac565b6107d6816111ac565b6108146040518060400160405280601581526020017f2d2d2d2d2d2d2d2d2d2d2d2d2d2d2d2d2d2d2d2d0a00000000000000000000008152506111ac565b61081e338a611587565b61082889826115a5565b6108326007611619565b61085560405180606001604052806023815260200161380d602391398a3361162f565b7f1c05098ed1ff38e6238d2b1b04b2c7977d4c94ce651bda6473f9dba8dbf01da0338a604051610886929190612c4f565b60405180910390a1505050505050505050565b6108aa6108a46112fa565b826116ce565b6108e9576040517f08c379a00000000000000000000000000000000000000000000000000000000081526004016108e090612e53565b60405180910390fd5b6108f4838383611763565b505050565b6060600061092d610909846119ca565b6040516020016109199190612ba4565b604051602081830303815290604052611b77565b9050600a805490508161094091906131b3565b9050600a818154811061097c577f4e487b7100000000000000000000000000000000000000000000000000000000600052603260045260246000fd5b90600052602060002001805461099190613107565b80601f01602080910402602001604051908101604052809291908181526020018280546109bd90613107565b8015610a0a5780601f106109df57610100808354040283529160200191610a0a565b820191906000526020600020905b8154815290600101906020018083116109ed57829003601f168201915b5050505050915050919050565b610a3283838360405180602001604052806000815250610e85565b505050565b60606000610a6b610a47846119ca565b604051602001610a579190612bc6565b604051602081830303815290604052611b77565b9050600d8054905081610a7e91906131b3565b9050600d8181548110610aba577f4e487b7100000000000000000000000000000000000000000000000000000000600052603260045260246000fd5b906000526020600020018054610acf90613107565b80601f0160208091040260200160405190810160405280929190818152602001828054610afb90613107565b8015610b485780601f10610b1d57610100808354040283529160200191610b48565b820191906000526020600020905b815481529060010190602001808311610b2b57829003601f168201915b5050505050915050919050565b6000806002600084815260200190815260200160002060009054906101000a900473ffffffffffffffffffffffffffffffffffffffff169050600073ffffffffffffffffffffffffffffffffffffffff168173ffffffffffffffffffffffffffffffffffffffff161415610bfe576040517f08c379a0000000000000000000000000000000000000000000000000000000008152600401610bf590612e13565b60405180910390fd5b80915050919050565b60008073ffffffffffffffffffffffffffffffffffffffff168273ffffffffffffffffffffffffffffffffffffffff161415610c78576040517f08c379a0000000000000000000000000000000000000000000000000000000008152600401610c6f90612d93565b60405180910390fd5b600360008373ffffffffffffffffffffffffffffffffffffffff1673ffffffffffffffffffffffffffffffffffffffff168152602001908152602001600020549050919050565b606060018054610cce90613107565b80601f0160208091040260200160405190810160405280929190818152602001828054610cfa90613107565b8015610d475780601f10610d1c57610100808354040283529160200191610d47565b820191906000526020600020905b815481529060010190602001808311610d2a57829003601f168201915b5050505050905090565b610d63610d5c6112fa565b8383611baa565b5050565b60606000610d9b610d77846119ca565b604051602001610d879190612af9565b604051602081830303815290604052611b77565b9050600b8054905081610dae91906131b3565b9050600b8181548110610dea577f4e487b7100000000000000000000000000000000000000000000000000000000600052603260045260246000fd5b906000526020600020018054610dff90613107565b80601f0160208091040260200160405190810160405280929190818152602001828054610e2b90613107565b8015610e785780601f10610e4d57610100808354040283529160200191610e78565b820191906000526020600020905b815481529060010190602001808311610e5b57829003601f168201915b5050505050915050919050565b610e96610e906112fa565b836116ce565b610ed5576040517f08c379a0000000000000000000000000000000000000000000000000000000008152600401610ecc90612e53565b60405180910390fd5b610ee184848484611d17565b50505050565b60606000610f1b610ef7846119ca565b604051602001610f079190612b82565b604051602081830303815290604052611b77565b9050600c8054905081610f2e91906131b3565b9050600c8181548110610f6a577f4e487b7100000000000000000000000000000000000000000000000000000000600052603260045260246000fd5b906000526020600020018054610f7f90613107565b80601f0160208091040260200160405190810160405280929190818152602001828054610fab90613107565b8015610ff85780601f10610fcd57610100808354040283529160200191610ff8565b820191906000526020600020905b815481529060010190602001808311610fdb57829003601f168201915b5050505050915050919050565b6060611010826112af565b600060066000848152602001908152602001600020805461103090613107565b80601f016020809104026020016040519081016040528092919081815260200182805461105c90613107565b80156110a95780601f1061107e576101008083540402835291602001916110a9565b820191906000526020600020905b81548152906001019060200180831161108c57829003601f168201915b5050505050905060006110ba611d73565b90506000815114156110d0578192505050611113565b6000825111156111055780826040516020016110ed929190612a5b565b60405160208183030381529060405292505050611113565b61110e84611d8a565b925050505b919050565b6000600560008473ffffffffffffffffffffffffffffffffffffffff1673ffffffffffffffffffffffffffffffffffffffff16815260200190815260200160002060008373ffffffffffffffffffffffffffffffffffffffff1673ffffffffffffffffffffffffffffffffffffffff16815260200190815260200160002060009054906101000a900460ff16905092915050565b611242816040516024016111c09190612c93565b6040516020818303038152906040527f41304fac000000000000000000000000000000000000000000000000000000007bffffffffffffffffffffffffffffffffffffffffffffffffffffffff19166020820180517bffffffffffffffffffffffffffffffffffffffffffffffffffffffff8381831617835250505050611df2565b50565b60007f01ffc9a7000000000000000000000000000000000000000000000000000000007bffffffffffffffffffffffffffffffffffffffffffffffffffffffff1916827bffffffffffffffffffffffffffffffffffffffffffffffffffffffff1916149050919050565b6112b881611e1b565b6112f7576040517f08c379a00000000000000000000000000000000000000000000000000000000081526004016112ee90612e13565b60405180910390fd5b50565b600033905090565b816004600083815260200190815260200160002060006101000a81548173ffffffffffffffffffffffffffffffffffffffff021916908373ffffffffffffffffffffffffffffffffffffffff160217905550808273ffffffffffffffffffffffffffffffffffffffff1661137583610b55565b73ffffffffffffffffffffffffffffffffffffffff167f8c5be1e5ebec7d5bd14f71427d1e84f3dd0314c0f7b2291e5b200ac8c7c3b92560405160405180910390a45050565b600081600001549050919050565b606060008251905060008114156113f25760405180602001604052806000815250915050611582565b600060036002836114039190612f3c565b61140d9190612f92565b60046114199190612fc3565b9050600060208261142a9190612f3c565b67ffffffffffffffff811115611469577f4e487b7100000000000000000000000000000000000000000000000000000000600052604160045260246000fd5b6040519080825280601f01601f19166020018201604052801561149b5781602001600182028036833780820191505090505b5090506000604051806060016040528060408152602001613830604091399050600181016020830160005b8681101561153f5760038101905062ffffff818a015116603f8160121c168401518060081b905060ff603f83600c1c1686015116810190508060081b905060ff603f8360061c1686015116810190508060081b905060ff603f831686015116810190508060e01b905080845260048401935050506114c6565b506003860660018114611559576002811461156957611574565b613d3d60f01b6002830352611574565b603d60f81b60018303525b508484525050819450505050505b919050565b6115a1828260405180602001604052806000815250611e87565b5050565b6115ae82611e1b565b6115ed576040517f08c379a00000000000000000000000000000000000000000000000000000000081526004016115e490612db3565b60405180910390fd5b80600660008481526020019081526020016000209080519060200190611614929190612280565b505050565b6001816000016000828254019250508190555050565b6116c983838360405160240161164793929190612cb5565b6040516020818303038152906040527fe3849f79000000000000000000000000000000000000000000000000000000007bffffffffffffffffffffffffffffffffffffffffffffffffffffffff19166020820180517bffffffffffffffffffffffffffffffffffffffffffffffffffffffff8381831617835250505050611df2565b505050565b6000806116da83610b55565b90508073ffffffffffffffffffffffffffffffffffffffff168473ffffffffffffffffffffffffffffffffffffffff16148061171c575061171b8185611118565b5b8061175a57508373ffffffffffffffffffffffffffffffffffffffff1661174284610541565b73ffffffffffffffffffffffffffffffffffffffff16145b91505092915050565b8273ffffffffffffffffffffffffffffffffffffffff1661178382610b55565b73ffffffffffffffffffffffffffffffffffffffff16146117d9576040517f08c379a00000000000000000000000000000000000000000000000000000000081526004016117d090612d13565b60405180910390fd5b600073ffffffffffffffffffffffffffffffffffffffff168273ffffffffffffffffffffffffffffffffffffffff161415611849576040517f08c379a000000000000000000000000000000000000000000000000000000000815260040161184090612d53565b60405180910390fd5b611854838383611ee2565b61185f600082611302565b6001600360008573ffffffffffffffffffffffffffffffffffffffff1673ffffffffffffffffffffffffffffffffffffffff16815260200190815260200160002060008282546118af919061301d565b925050819055506001600360008473ffffffffffffffffffffffffffffffffffffffff1673ffffffffffffffffffffffffffffffffffffffff16815260200190815260200160002060008282546119069190612f3c565b92505081905550816002600083815260200190815260200160002060006101000a81548173ffffffffffffffffffffffffffffffffffffffff021916908373ffffffffffffffffffffffffffffffffffffffff160217905550808273ffffffffffffffffffffffffffffffffffffffff168473ffffffffffffffffffffffffffffffffffffffff167fddf252ad1be2c89b69c2b068fc378daa952ba7f163c4a11628f55a4df523b3ef60405160405180910390a46119c5838383611ee7565b505050565b60606000821415611a12576040518060400160405280600181526020017f30000000000000000000000000000000000000000000000000000000000000008152509050611b72565b600082905060005b60008214611a44578080611a2d9061316a565b915050600a82611a3d9190612f92565b9150611a1a565b60008167ffffffffffffffff811115611a86577f4e487b7100000000000000000000000000000000000000000000000000000000600052604160045260246000fd5b6040519080825280601f01601f191660200182016040528015611ab85781602001600182028036833780820191505090505b5090505b60008514611b6b57600182611ad1919061301d565b9150600a85611ae091906131b3565b6030611aec9190612f3c565b60f81b818381518110611b28577f4e487b7100000000000000000000000000000000000000000000000000000000600052603260045260246000fd5b60200101907effffffffffffffffffffffffffffffffffffffffffffffffffffffffffffff1916908160001a905350600a85611b649190612f92565b9450611abc565b8093505050505b919050565b600081604051602001611b8a9190612a44565b6040516020818303038152906040528051906020012060001c9050919050565b8173ffffffffffffffffffffffffffffffffffffffff168373ffffffffffffffffffffffffffffffffffffffff161415611c19576040517f08c379a0000000000000000000000000000000000000000000000000000000008152600401611c1090612d73565b60405180910390fd5b80600560008573ffffffffffffffffffffffffffffffffffffffff1673ffffffffffffffffffffffffffffffffffffffff16815260200190815260200160002060008473ffffffffffffffffffffffffffffffffffffffff1673ffffffffffffffffffffffffffffffffffffffff16815260200190815260200160002060006101000a81548160ff0219169083151502179055508173ffffffffffffffffffffffffffffffffffffffff168373ffffffffffffffffffffffffffffffffffffffff167f17307eab39ab6107e8899845ad3d59bd9653f200f220920489ca2b5937696c3183604051611d0a9190612c78565b60405180910390a3505050565b611d22848484611763565b611d2e84848484611eec565b611d6d576040517f08c379a0000000000000000000000000000000000000000000000000000000008152600401611d6490612cf3565b60405180910390fd5b50505050565b606060405180602001604052806000815250905090565b6060611d95826112af565b6000611d9f611d73565b90506000815111611dbf5760405180602001604052806000815250611dea565b80611dc9846119ca565b604051602001611dda929190612a5b565b6040516020818303038152906040525b915050919050565b60008151905060006a636f6e736f6c652e6c6f679050602083016000808483855afa5050505050565b60008073ffffffffffffffffffffffffffffffffffffffff166002600084815260200190815260200160002060009054906101000a900473ffffffffffffffffffffffffffffffffffffffff1673ffffffffffffffffffffffffffffffffffffffff1614159050919050565b611e918383612083565b611e9e6000848484611eec565b611edd576040517f08c379a0000000000000000000000000000000000000000000000000000000008152600401611ed490612cf3565b60405180910390fd5b505050565b505050565b505050565b6000611f0d8473ffffffffffffffffffffffffffffffffffffffff1661225d565b15612076578373ffffffffffffffffffffffffffffffffffffffff1663150b7a02611f366112fa565b8786866040518563ffffffff1660e01b8152600401611f589493929190612c03565b602060405180830381600087803b158015611f7257600080fd5b505af1925050508015611fa357506040513d601f19601f82011682018060405250810190611fa091906125c4565b60015b612026573d8060008114611fd3576040519150601f19603f3d011682016040523d82523d6000602084013e611fd8565b606091505b5060008151141561201e576040517f08c379a000000000000000000000000000000000000000000000000000000000815260040161201590612cf3565b60405180910390fd5b805181602001fd5b63150b7a0260e01b7bffffffffffffffffffffffffffffffffffffffffffffffffffffffff1916817bffffffffffffffffffffffffffffffffffffffffffffffffffffffff19161491505061207b565b600190505b949350505050565b600073ffffffffffffffffffffffffffffffffffffffff168273ffffffffffffffffffffffffffffffffffffffff1614156120f3576040517f08c379a00000000000000000000000000000000000000000000000000000000081526004016120ea90612df3565b60405180910390fd5b6120fc81611e1b565b1561213c576040517f08c379a000000000000000000000000000000000000000000000000000000000815260040161213390612d33565b60405180910390fd5b61214860008383611ee2565b6001600360008473ffffffffffffffffffffffffffffffffffffffff1673ffffffffffffffffffffffffffffffffffffffff16815260200190815260200160002060008282546121989190612f3c565b92505081905550816002600083815260200190815260200160002060006101000a81548173ffffffffffffffffffffffffffffffffffffffff021916908373ffffffffffffffffffffffffffffffffffffffff160217905550808273ffffffffffffffffffffffffffffffffffffffff16600073ffffffffffffffffffffffffffffffffffffffff167fddf252ad1be2c89b69c2b068fc378daa952ba7f163c4a11628f55a4df523b3ef60405160405180910390a461225960008383611ee7565b5050565b6000808273ffffffffffffffffffffffffffffffffffffffff163b119050919050565b82805461228c90613107565b90600052602060002090601f0160209004810192826122ae57600085556122f5565b82601f106122c757805160ff19168380011785556122f5565b828001600101855582156122f5579182015b828111156122f45782518255916020019190600101906122d9565b5b5090506123029190612306565b5090565b5b8082111561231f576000816000905550600101612307565b5090565b600061233661233184612eb3565b612e8e565b90508281526020810184848401111561234e57600080fd5b6123598482856130c5565b509392505050565b600081359050612370816137b0565b92915050565b600081359050612385816137c7565b92915050565b60008135905061239a816137de565b92915050565b6000815190506123af816137de565b92915050565b600082601f8301126123c657600080fd5b81356123d6848260208601612323565b91505092915050565b6000813590506123ee816137f5565b92915050565b60006020828403121561240657600080fd5b600061241484828501612361565b91505092915050565b6000806040838503121561243057600080fd5b600061243e85828601612361565b925050602061244f85828601612361565b9150509250929050565b60008060006060848603121561246e57600080fd5b600061247c86828701612361565b935050602061248d86828701612361565b925050604061249e868287016123df565b9150509250925092565b600080600080608085870312156124be57600080fd5b60006124cc87828801612361565b94505060206124dd87828801612361565b93505060406124ee878288016123df565b925050606085013567ffffffffffffffff81111561250b57600080fd5b612517878288016123b5565b91505092959194509250565b6000806040838503121561253657600080fd5b600061254485828601612361565b925050602061255585828601612376565b9150509250929050565b6000806040838503121561257257600080fd5b600061258085828601612361565b9250506020612591858286016123df565b9150509250929050565b6000602082840312156125ad57600080fd5b60006125bb8482850161238b565b91505092915050565b6000602082840312156125d657600080fd5b60006125e4848285016123a0565b91505092915050565b6000602082840312156125ff57600080fd5b600061260d848285016123df565b91505092915050565b61261f81613051565b82525050565b61262e81613063565b82525050565b600061263f82612ef9565b6126498185612f0f565b93506126598185602086016130d4565b612662816132a0565b840191505092915050565b600061267882612f04565b6126828185612f20565b93506126928185602086016130d4565b61269b816132a0565b840191505092915050565b60006126b182612f04565b6126bb8185612f31565b93506126cb8185602086016130d4565b80840191505092915050565b600081546126e481613107565b6126ee8186612f31565b94506001821660008114612709576001811461271a5761274d565b60ff1983168652818601935061274d565b61272385612ee4565b60005b8381101561274557815481890152600182019150602081019050612726565b838801955050505b50505092915050565b6000612763603283612f20565b915061276e826132b1565b604082019050919050565b6000612786602583612f20565b915061279182613300565b604082019050919050565b60006127a9601c83612f20565b91506127b48261334f565b602082019050919050565b60006127cc602483612f20565b91506127d782613378565b604082019050919050565b60006127ef601983612f20565b91506127fa826133c7565b602082019050919050565b6000612812601283612f31565b915061281d826133f0565b601282019050919050565b6000612835600d83612f31565b915061284082613419565b600d82019050919050565b6000612858602983612f20565b915061286382613442565b604082019050919050565b600061287b602e83612f20565b915061288682613491565b604082019050919050565b600061289e600283612f31565b91506128a9826134e0565b600282019050919050565b60006128c1603e83612f20565b91506128cc82613509565b604082019050919050565b60006128e4602083612f20565b91506128ef82613558565b602082019050919050565b6000612907606a83612f31565b915061291282613581565b606a82019050919050565b600061292a600a83612f31565b91506129358261361c565b600a82019050919050565b600061294d601883612f20565b915061295882613645565b602082019050919050565b6000612970602183612f20565b915061297b8261366e565b604082019050919050565b6000612993601d83612f31565b915061299e826136bd565b601d82019050919050565b60006129b6601183612f31565b91506129c1826136e6565b601182019050919050565b60006129d9601183612f31565b91506129e48261370f565b601182019050919050565b60006129fc600c83612f31565b9150612a0782613738565b600c82019050919050565b6000612a1f602e83612f20565b9150612a2a82613761565b604082019050919050565b612a3e816130bb565b82525050565b6000612a5082846126a6565b915081905092915050565b6000612a6782856126a6565b9150612a7382846126a6565b91508190509392505050565b6000612a8b82866126a6565b9150612a9782856126a6565b9150612aa382846126a6565b9150819050949350505050565b6000612abc82876126d7565b9150612ac882866126a6565b9150612ad482856126d7565b9150612ae082846126a6565b9150612aeb82612828565b915081905095945050505050565b6000612b0482612805565b9150612b1082846126a6565b915081905092915050565b6000612b268261291d565b9150612b3282856126a6565b9150612b3d826128fa565b9150612b4982846126a6565b9150612b5482612891565b91508190509392505050565b6000612b6b82612986565b9150612b7782846126a6565b915081905092915050565b6000612b8d826129a9565b9150612b9982846126a6565b915081905092915050565b6000612baf826129cc565b9150612bbb82846126a6565b915081905092915050565b6000612bd1826129ef565b9150612bdd82846126a6565b915081905092915050565b6000602082019050612bfd6000830184612616565b92915050565b6000608082019050612c186000830187612616565b612c256020830186612616565b612c326040830185612a35565b8181036060830152612c448184612634565b905095945050505050565b6000604082019050612c646000830185612616565b612c716020830184612a35565b9392505050565b6000602082019050612c8d6000830184612625565b92915050565b60006020820190508181036000830152612cad818461266d565b905092915050565b60006060820190508181036000830152612ccf818661266d565b9050612cde6020830185612a35565b612ceb6040830184612616565b949350505050565b60006020820190508181036000830152612d0c81612756565b9050919050565b60006020820190508181036000830152612d2c81612779565b9050919050565b60006020820190508181036000830152612d4c8161279c565b9050919050565b60006020820190508181036000830152612d6c816127bf565b9050919050565b60006020820190508181036000830152612d8c816127e2565b9050919050565b60006020820190508181036000830152612dac8161284b565b9050919050565b60006020820190508181036000830152612dcc8161286e565b9050919050565b60006020820190508181036000830152612dec816128b4565b9050919050565b60006020820190508181036000830152612e0c816128d7565b9050919050565b60006020820190508181036000830152612e2c81612940565b9050919050565b60006020820190508181036000830152612e4c81612963565b9050919050565b60006020820190508181036000830152612e6c81612a12565b9050919050565b6000602082019050612e886000830184612a35565b92915050565b6000612e98612ea9565b9050612ea48282613139565b919050565b6000604051905090565b600067ffffffffffffffff821115612ece57612ecd613271565b5b612ed7826132a0565b9050602081019050919050565b60008190508160005260206000209050919050565b600081519050919050565b600081519050919050565b600082825260208201905092915050565b600082825260208201905092915050565b600081905092915050565b6000612f47826130bb565b9150612f52836130bb565b9250827fffffffffffffffffffffffffffffffffffffffffffffffffffffffffffffffff03821115612f8757612f866131e4565b5b828201905092915050565b6000612f9d826130bb565b9150612fa8836130bb565b925082612fb857612fb7613213565b5b828204905092915050565b6000612fce826130bb565b9150612fd9836130bb565b9250817fffffffffffffffffffffffffffffffffffffffffffffffffffffffffffffffff0483118215151615613012576130116131e4565b5b828202905092915050565b6000613028826130bb565b9150613033836130bb565b925082821015613046576130456131e4565b5b828203905092915050565b600061305c8261309b565b9050919050565b60008115159050919050565b60007fffffffff0000000000000000000000000000000000000000000000000000000082169050919050565b600073ffffffffffffffffffffffffffffffffffffffff82169050919050565b6000819050919050565b82818337600083830152505050565b60005b838110156130f25780820151818401526020810190506130d7565b83811115613101576000848401525b50505050565b6000600282049050600182168061311f57607f821691505b6020821081141561313357613132613242565b5b50919050565b613142826132a0565b810181811067ffffffffffffffff8211171561316157613160613271565b5b80604052505050565b6000613175826130bb565b91507fffffffffffffffffffffffffffffffffffffffffffffffffffffffffffffffff8214156131a8576131a76131e4565b5b600182019050919050565b60006131be826130bb565b91506131c9836130bb565b9250826131d9576131d8613213565b5b828206905092915050565b7f4e487b7100000000000000000000000000000000000000000000000000000000600052601160045260246000fd5b7f4e487b7100000000000000000000000000000000000000000000000000000000600052601260045260246000fd5b7f4e487b7100000000000000000000000000000000000000000000000000000000600052602260045260246000fd5b7f4e487b7100000000000000000000000000000000000000000000000000000000600052604160045260246000fd5b6000601f19601f8301169050919050565b7f4552433732313a207472616e7366657220746f206e6f6e20455243373231526560008201527f63656976657220696d706c656d656e7465720000000000000000000000000000602082015250565b7f4552433732313a207472616e736665722066726f6d20696e636f72726563742060008201527f6f776e6572000000000000000000000000000000000000000000000000000000602082015250565b7f4552433732313a20746f6b656e20616c7265616479206d696e74656400000000600082015250565b7f4552433732313a207472616e7366657220746f20746865207a65726f2061646460008201527f7265737300000000000000000000000000000000000000000000000000000000602082015250565b7f4552433732313a20617070726f766520746f2063616c6c657200000000000000600082015250565b7f5345434f4e445f574f52445f43484f53454e0000000000000000000000000000600082015250565b7f3c2f746578743e3c2f7376673e00000000000000000000000000000000000000600082015250565b7f4552433732313a2061646472657373207a65726f206973206e6f74206120766160008201527f6c6964206f776e65720000000000000000000000000000000000000000000000602082015250565b7f45524337323155524953746f726167653a2055524920736574206f66206e6f6e60008201527f6578697374656e7420746f6b656e000000000000000000000000000000000000602082015250565b7f227d000000000000000000000000000000000000000000000000000000000000600082015250565b7f4552433732313a20617070726f76652063616c6c6572206973206e6f7420746f60008201527f6b656e206f776e6572206e6f7220617070726f76656420666f7220616c6c0000602082015250565b7f4552433732313a206d696e7420746f20746865207a65726f2061646472657373600082015250565b7f222c20226465736372697074696f6e223a20225468652074727574682c206f6e60008201527f6c79207468652074727574682c206e6f7468696e67206275742074686520747260208201527f757468222c2022696d616765223a2022646174613a696d6167652f7376672b7860408201527f6d6c3b6261736536342c00000000000000000000000000000000000000000000606082015250565b7f7b226e616d65223a202200000000000000000000000000000000000000000000600082015250565b7f4552433732313a20696e76616c696420746f6b656e2049440000000000000000600082015250565b7f4552433732313a20617070726f76616c20746f2063757272656e74206f776e6560008201527f7200000000000000000000000000000000000000000000000000000000000000602082015250565b7f646174613a6170706c69636174696f6e2f6a736f6e3b6261736536342c000000600082015250565b7f54484952445f574f52445f43484f53454e000000000000000000000000000000600082015250565b7f46495253545f574f52445f43484f53454e000000000000000000000000000000600082015250565b7f434f4c4f525f43484f53454e0000000000000000000000000000000000000000600082015250565b7f4552433732313a2063616c6c6572206973206e6f7420746f6b656e206f776e6560008201527f72206e6f7220617070726f766564000000000000000000000000000000000000602082015250565b6137b981613051565b81146137c457600080fd5b50565b6137d081613063565b81146137db57600080fd5b50565b6137e78161306f565b81146137f257600080fd5b50565b6137fe816130bb565b811461380957600080fd5b5056fe4e465420772f20494420257320686173206265656e206d696e74656420746f3a2025734142434445464748494a4b4c4d4e4f505152535455565758595a6162636465666768696a6b6c6d6e6f707172737475767778797a303132333435363738392b2fa26469706673582212203c4f705254c3993c764f68cf38a1c7f8ee1909c161d70822a788930cbbf9d31864736f6c634300080100333c73766720786d6c6e733d27687474703a2f2f7777772e77332e6f72672f323030302f73766727207072657365727665417370656374526174696f3d27784d696e594d696e206d656574272076696577426f783d273020302033353020333530273e3c7374796c653e2e62617365207b2066696c6c3a2077686974653b20666f6e742d66616d696c793a2073657269663b20666f6e742d73697a653a20323470783b207d3c2f7374796c653e3c726563742077696474683d273130302527206865696768743d2731303025272066696c6c3d275468652074727574682c206f6e6c79207468652074727574682c206e6f7468696e672062757420746865207472757468272f3e3c7465787420783d273530252720793d273530252720636c6173733d27626173652720646f6d696e616e742d626173656c696e653d276d6964646c652720746578742d616e63686f723d276d6964646c65273e",
    "linkReferences": {},
    "deployedLinkReferences": {}
}